{
	"data": {
		"bytecode": {
			"linkReferences": {},
			"object": "6080604052612710600d553480156200001757600080fd5b506040518060400160405280600681526020017f55746f70696100000000000000000000000000000000000000000000000000008152506040518060400160405280600481526020017f55544f500000000000000000000000000000000000000000000000000000000081525081600090805190602001906200009c929190620001ac565b508060019080519060200190620000b5929190620001ac565b505050620000d8620000cc620000de60201b60201c565b620000e660201b60201c565b620002c1565b600033905090565b6000600b60009054906101000a900473ffffffffffffffffffffffffffffffffffffffff16905081600b60006101000a81548173ffffffffffffffffffffffffffffffffffffffff021916908373ffffffffffffffffffffffffffffffffffffffff1602179055508173ffffffffffffffffffffffffffffffffffffffff168173ffffffffffffffffffffffffffffffffffffffff167f8be0079c531659141344cd1fd0a4f28419497f9722a3daafe3b4186f6b6457e060405160405180910390a35050565b828054620001ba906200028b565b90600052602060002090601f016020900481019282620001de57600085556200022a565b82601f10620001f957805160ff19168380011785556200022a565b828001600101855582156200022a579182015b82811115620002295782518255916020019190600101906200020c565b5b5090506200023991906200023d565b5090565b5b80821115620002585760008160009055506001016200023e565b5090565b7f4e487b7100000000000000000000000000000000000000000000000000000000600052602260045260246000fd5b60006002820490506001821680620002a457607f821691505b60208210811415620002bb57620002ba6200025c565b5b50919050565b61399c80620002d16000396000f3fe608060405234801561001057600080fd5b50600436106101375760003560e01c80636352211e116100b8578063a22cb4651161007c578063a22cb4651461034e578063b88d4fde1461036a578063c87b56dd14610386578063d204c45e146103b6578063e985e9c5146103d2578063f2fde38b1461040257610137565b80636352211e146102a857806370a08231146102d8578063715018a6146103085780638da5cb5b1461031257806395d89b411461033057610137565b806323b872dd116100ff57806323b872dd146101f45780632f745c591461021057806342842e0e1461024057806342966c681461025c5780634f6ccce71461027857610137565b806301ffc9a71461013c57806306fdde031461016c578063081812fc1461018a578063095ea7b3146101ba57806318160ddd146101d6575b600080fd5b610156600480360381019061015191906126f8565b61041e565b6040516101639190612740565b60405180910390f35b610174610430565b60405161018191906127f4565b60405180910390f35b6101a4600480360381019061019f919061284c565b6104c2565b6040516101b191906128ba565b60405180910390f35b6101d460048036038101906101cf9190612901565b610508565b005b6101de610620565b6040516101eb9190612950565b60405180910390f35b61020e6004803603810190610209919061296b565b61062d565b005b61022a60048036038101906102259190612901565b61068d565b6040516102379190612950565b60405180910390f35b61025a6004803603810190610255919061296b565b610732565b005b6102766004803603810190610271919061284c565b610752565b005b610292600480360381019061028d919061284c565b6107ae565b60405161029f9190612950565b60405180910390f35b6102c260048036038101906102bd919061284c565b61081f565b6040516102cf91906128ba565b60405180910390f35b6102f260048036038101906102ed91906129be565b6108a6565b6040516102ff9190612950565b60405180910390f35b61031061095e565b005b61031a610972565b60405161032791906128ba565b60405180910390f35b61033861099c565b60405161034591906127f4565b60405180910390f35b61036860048036038101906103639190612a17565b610a2e565b005b610384600480360381019061037f9190612b8c565b610a44565b005b6103a0600480360381019061039b919061284c565b610aa6565b6040516103ad91906127f4565b60405180910390f35b6103d060048036038101906103cb9190612cb0565b610ab8565b005b6103ec60048036038101906103e79190612d0c565b610b36565b6040516103f99190612740565b60405180910390f35b61041c600480360381019061041791906129be565b610bca565b005b600061042982610c4e565b9050919050565b60606000805461043f90612d7b565b80601f016020809104026020016040519081016040528092919081815260200182805461046b90612d7b565b80156104b85780601f1061048d576101008083540402835291602001916104b8565b820191906000526020600020905b81548152906001019060200180831161049b57829003601f168201915b5050505050905090565b60006104cd82610caf565b6004600083815260200190815260200160002060009054906101000a900473ffffffffffffffffffffffffffffffffffffffff169050919050565b60006105138261081f565b90508073ffffffffffffffffffffffffffffffffffffffff168373ffffffffffffffffffffffffffffffffffffffff161415610584576040517f08c379a000000000000000000000000000000000000000000000000000000000815260040161057b90612e1f565b60405180910390fd5b8073ffffffffffffffffffffffffffffffffffffffff166105a3610cfa565b73ffffffffffffffffffffffffffffffffffffffff1614806105d257506105d1816105cc610cfa565b610b36565b5b610611576040517f08c379a000000000000000000000000000000000000000000000000000000000815260040161060890612eb1565b60405180910390fd5b61061b8383610d02565b505050565b6000600880549050905090565b61063e610638610cfa565b82610dbb565b61067d576040517f08c379a000000000000000000000000000000000000000000000000000000000815260040161067490612f43565b60405180910390fd5b610688838383610e50565b505050565b6000610698836108a6565b82106106d9576040517f08c379a00000000000000000000000000000000000000000000000000000000081526004016106d090612fd5565b60405180910390fd5b600660008473ffffffffffffffffffffffffffffffffffffffff1673ffffffffffffffffffffffffffffffffffffffff168152602001908152602001600020600083815260200190815260200160002054905092915050565b61074d83838360405180602001604052806000815250610a44565b505050565b61076361075d610cfa565b82610dbb565b6107a2576040517f08c379a000000000000000000000000000000000000000000000000000000000815260040161079990612f43565b60405180910390fd5b6107ab8161114a565b50565b60006107b8610620565b82106107f9576040517f08c379a00000000000000000000000000000000000000000000000000000000081526004016107f090613067565b60405180910390fd5b6008828154811061080d5761080c613087565b5b90600052602060002001549050919050565b60008061082b83611156565b9050600073ffffffffffffffffffffffffffffffffffffffff168173ffffffffffffffffffffffffffffffffffffffff16141561089d576040517f08c379a000000000000000000000000000000000000000000000000000000000815260040161089490613102565b60405180910390fd5b80915050919050565b60008073ffffffffffffffffffffffffffffffffffffffff168273ffffffffffffffffffffffffffffffffffffffff161415610917576040517f08c379a000000000000000000000000000000000000000000000000000000000815260040161090e90613194565b60405180910390fd5b600360008373ffffffffffffffffffffffffffffffffffffffff1673ffffffffffffffffffffffffffffffffffffffff168152602001908152602001600020549050919050565b610966611193565b6109706000611211565b565b6000600b60009054906101000a900473ffffffffffffffffffffffffffffffffffffffff16905090565b6060600180546109ab90612d7b565b80601f01602080910402602001604051908101604052809291908181526020018280546109d790612d7b565b8015610a245780601f106109f957610100808354040283529160200191610a24565b820191906000526020600020905b815481529060010190602001808311610a0757829003601f168201915b5050505050905090565b610a40610a39610cfa565b83836112d7565b5050565b610a55610a4f610cfa565b83610dbb565b610a94576040517f08c379a0000000000000000000000000000000000000000000000000000000008152600401610a8b90612f43565b60405180910390fd5b610aa084848484611444565b50505050565b6060610ab1826114a0565b9050919050565b610ac0611193565b6000610acc600c6115b3565b9050600d54811115610b13576040517f08c379a0000000000000000000000000000000000000000000000000000000008152600401610b0a90613226565b60405180910390fd5b610b1d600c6115c1565b610b2783826115d7565b610b3181836115f5565b505050565b6000600560008473ffffffffffffffffffffffffffffffffffffffff1673ffffffffffffffffffffffffffffffffffffffff16815260200190815260200160002060008373ffffffffffffffffffffffffffffffffffffffff1673ffffffffffffffffffffffffffffffffffffffff16815260200190815260200160002060009054906101000a900460ff16905092915050565b610bd2611193565b600073ffffffffffffffffffffffffffffffffffffffff168173ffffffffffffffffffffffffffffffffffffffff161415610c42576040517f08c379a0000000000000000000000000000000000000000000000000000000008152600401610c39906132b8565b60405180910390fd5b610c4b81611211565b50565b6000634906490660e01b7bffffffffffffffffffffffffffffffffffffffffffffffffffffffff1916827bffffffffffffffffffffffffffffffffffffffffffffffffffffffff19161480610ca85750610ca7826116a0565b5b9050919050565b610cb88161171a565b610cf7576040517f08c379a0000000000000000000000000000000000000000000000000000000008152600401610cee90613102565b60405180910390fd5b50565b600033905090565b816004600083815260200190815260200160002060006101000a81548173ffffffffffffffffffffffffffffffffffffffff021916908373ffffffffffffffffffffffffffffffffffffffff160217905550808273ffffffffffffffffffffffffffffffffffffffff16610d758361081f565b73ffffffffffffffffffffffffffffffffffffffff167f8c5be1e5ebec7d5bd14f71427d1e84f3dd0314c0f7b2291e5b200ac8c7c3b92560405160405180910390a45050565b600080610dc78361081f565b90508073ffffffffffffffffffffffffffffffffffffffff168473ffffffffffffffffffffffffffffffffffffffff161480610e095750610e088185610b36565b5b80610e4757508373ffffffffffffffffffffffffffffffffffffffff16610e2f846104c2565b73ffffffffffffffffffffffffffffffffffffffff16145b91505092915050565b8273ffffffffffffffffffffffffffffffffffffffff16610e708261081f565b73ffffffffffffffffffffffffffffffffffffffff1614610ec6576040517f08c379a0000000000000000000000000000000000000000000000000000000008152600401610ebd9061334a565b60405180910390fd5b600073ffffffffffffffffffffffffffffffffffffffff168273ffffffffffffffffffffffffffffffffffffffff161415610f36576040517f08c379a0000000000000000000000000000000000000000000000000000000008152600401610f2d906133dc565b60405180910390fd5b610f43838383600161175b565b8273ffffffffffffffffffffffffffffffffffffffff16610f638261081f565b73ffffffffffffffffffffffffffffffffffffffff1614610fb9576040517f08c379a0000000000000000000000000000000000000000000000000000000008152600401610fb09061334a565b60405180910390fd5b6004600082815260200190815260200160002060006101000a81549073ffffffffffffffffffffffffffffffffffffffff02191690556001600360008573ffffffffffffffffffffffffffffffffffffffff1673ffffffffffffffffffffffffffffffffffffffff168152602001908152602001600020600082825403925050819055506001600360008473ffffffffffffffffffffffffffffffffffffffff1673ffffffffffffffffffffffffffffffffffffffff16815260200190815260200160002060008282540192505081905550816002600083815260200190815260200160002060006101000a81548173ffffffffffffffffffffffffffffffffffffffff021916908373ffffffffffffffffffffffffffffffffffffffff160217905550808273ffffffffffffffffffffffffffffffffffffffff168473ffffffffffffffffffffffffffffffffffffffff167fddf252ad1be2c89b69c2b068fc378daa952ba7f163c4a11628f55a4df523b3ef60405160405180910390a4611145838383600161176d565b505050565b61115381611773565b50565b60006002600083815260200190815260200160002060009054906101000a900473ffffffffffffffffffffffffffffffffffffffff169050919050565b61119b610cfa565b73ffffffffffffffffffffffffffffffffffffffff166111b9610972565b73ffffffffffffffffffffffffffffffffffffffff161461120f576040517f08c379a000000000000000000000000000000000000000000000000000000000815260040161120690613448565b60405180910390fd5b565b6000600b60009054906101000a900473ffffffffffffffffffffffffffffffffffffffff16905081600b60006101000a81548173ffffffffffffffffffffffffffffffffffffffff021916908373ffffffffffffffffffffffffffffffffffffffff1602179055508173ffffffffffffffffffffffffffffffffffffffff168173ffffffffffffffffffffffffffffffffffffffff167f8be0079c531659141344cd1fd0a4f28419497f9722a3daafe3b4186f6b6457e060405160405180910390a35050565b8173ffffffffffffffffffffffffffffffffffffffff168373ffffffffffffffffffffffffffffffffffffffff161415611346576040517f08c379a000000000000000000000000000000000000000000000000000000000815260040161133d906134b4565b60405180910390fd5b80600560008573ffffffffffffffffffffffffffffffffffffffff1673ffffffffffffffffffffffffffffffffffffffff16815260200190815260200160002060008473ffffffffffffffffffffffffffffffffffffffff1673ffffffffffffffffffffffffffffffffffffffff16815260200190815260200160002060006101000a81548160ff0219169083151502179055508173ffffffffffffffffffffffffffffffffffffffff168373ffffffffffffffffffffffffffffffffffffffff167f17307eab39ab6107e8899845ad3d59bd9653f200f220920489ca2b5937696c31836040516114379190612740565b60405180910390a3505050565b61144f848484610e50565b61145b848484846117c6565b61149a576040517f08c379a000000000000000000000000000000000000000000000000000000000815260040161149190613546565b60405180910390fd5b50505050565b60606114ab82610caf565b6000600a600084815260200190815260200160002080546114cb90612d7b565b80601f01602080910402602001604051908101604052809291908181526020018280546114f790612d7b565b80156115445780601f1061151957610100808354040283529160200191611544565b820191906000526020600020905b81548152906001019060200180831161152757829003601f168201915b50505050509050600061155561195d565b905060008151141561156b5781925050506115ae565b6000825111156115a05780826040516020016115889291906135a2565b604051602081830303815290604052925050506115ae565b6115a984611974565b925050505b919050565b600081600001549050919050565b6001816000016000828254019250508190555050565b6115f18282604051806020016040528060008152506119dc565b5050565b6115fe8261171a565b61163d576040517f08c379a000000000000000000000000000000000000000000000000000000000815260040161163490613638565b60405180910390fd5b80600a600084815260200190815260200160002090805190602001906116649291906125a9565b507ff8e1a15aba9398e019f0b49df1a4fde98ee17ae345cb5f6b5e2c27f5033e8ce7826040516116949190612950565b60405180910390a15050565b60007f780e9d63000000000000000000000000000000000000000000000000000000007bffffffffffffffffffffffffffffffffffffffffffffffffffffffff1916827bffffffffffffffffffffffffffffffffffffffffffffffffffffffff19161480611713575061171282611a37565b5b9050919050565b60008073ffffffffffffffffffffffffffffffffffffffff1661173c83611156565b73ffffffffffffffffffffffffffffffffffffffff1614159050919050565b61176784848484611b19565b50505050565b50505050565b61177c81611c79565b6000600a6000838152602001908152602001600020805461179c90612d7b565b9050146117c357600a600082815260200190815260200160002060006117c2919061262f565b5b50565b60006117e78473ffffffffffffffffffffffffffffffffffffffff16611dc7565b15611950578373ffffffffffffffffffffffffffffffffffffffff1663150b7a02611810610cfa565b8786866040518563ffffffff1660e01b815260040161183294939291906136ad565b602060405180830381600087803b15801561184c57600080fd5b505af192505050801561187d57506040513d601f19601f8201168201806040525081019061187a919061370e565b60015b611900573d80600081146118ad576040519150601f19603f3d011682016040523d82523d6000602084013e6118b2565b606091505b506000815114156118f8576040517f08c379a00000000000000000000000000000000000000000000000000000000081526004016118ef90613546565b60405180910390fd5b805181602001fd5b63150b7a0260e01b7bffffffffffffffffffffffffffffffffffffffffffffffffffffffff1916817bffffffffffffffffffffffffffffffffffffffffffffffffffffffff191614915050611955565b600190505b949350505050565b606060405180602001604052806000815250905090565b606061197f82610caf565b600061198961195d565b905060008151116119a957604051806020016040528060008152506119d4565b806119b384611dea565b6040516020016119c49291906135a2565b6040516020818303038152906040525b915050919050565b6119e68383611ec2565b6119f360008484846117c6565b611a32576040517f08c379a0000000000000000000000000000000000000000000000000000000008152600401611a2990613546565b60405180910390fd5b505050565b60007f80ac58cd000000000000000000000000000000000000000000000000000000007bffffffffffffffffffffffffffffffffffffffffffffffffffffffff1916827bffffffffffffffffffffffffffffffffffffffffffffffffffffffff19161480611b0257507f5b5e139f000000000000000000000000000000000000000000000000000000007bffffffffffffffffffffffffffffffffffffffffffffffffffffffff1916827bffffffffffffffffffffffffffffffffffffffffffffffffffffffff1916145b80611b125750611b11826120e0565b5b9050919050565b611b258484848461214a565b6001811115611b69576040517f08c379a0000000000000000000000000000000000000000000000000000000008152600401611b60906137ad565b60405180910390fd5b6000829050600073ffffffffffffffffffffffffffffffffffffffff168573ffffffffffffffffffffffffffffffffffffffff161415611bb157611bac81612150565b611bf0565b8373ffffffffffffffffffffffffffffffffffffffff168573ffffffffffffffffffffffffffffffffffffffff1614611bef57611bee8582612199565b5b5b600073ffffffffffffffffffffffffffffffffffffffff168473ffffffffffffffffffffffffffffffffffffffff161415611c3357611c2e81612306565b611c72565b8473ffffffffffffffffffffffffffffffffffffffff168473ffffffffffffffffffffffffffffffffffffffff1614611c7157611c7084826123d7565b5b5b5050505050565b6000611c848261081f565b9050611c9481600084600161175b565b611c9d8261081f565b90506004600083815260200190815260200160002060006101000a81549073ffffffffffffffffffffffffffffffffffffffff02191690556001600360008373ffffffffffffffffffffffffffffffffffffffff1673ffffffffffffffffffffffffffffffffffffffff168152602001908152602001600020600082825403925050819055506002600083815260200190815260200160002060006101000a81549073ffffffffffffffffffffffffffffffffffffffff021916905581600073ffffffffffffffffffffffffffffffffffffffff168273ffffffffffffffffffffffffffffffffffffffff167fddf252ad1be2c89b69c2b068fc378daa952ba7f163c4a11628f55a4df523b3ef60405160405180910390a4611dc381600084600161176d565b5050565b6000808273ffffffffffffffffffffffffffffffffffffffff163b119050919050565b606060006001611df984612456565b01905060008167ffffffffffffffff811115611e1857611e17612a61565b5b6040519080825280601f01601f191660200182016040528015611e4a5781602001600182028036833780820191505090505b509050600082602001820190505b600115611eb7578080600190039150507f3031323334353637383961626364656600000000000000000000000000000000600a86061a8153600a8581611ea157611ea06137cd565b5b0494506000851415611eb257611eb7565b611e58565b819350505050919050565b600073ffffffffffffffffffffffffffffffffffffffff168273ffffffffffffffffffffffffffffffffffffffff161415611f32576040517f08c379a0000000000000000000000000000000000000000000000000000000008152600401611f2990613848565b60405180910390fd5b611f3b8161171a565b15611f7b576040517f08c379a0000000000000000000000000000000000000000000000000000000008152600401611f72906138b4565b60405180910390fd5b611f8960008383600161175b565b611f928161171a565b15611fd2576040517f08c379a0000000000000000000000000000000000000000000000000000000008152600401611fc9906138b4565b60405180910390fd5b6001600360008473ffffffffffffffffffffffffffffffffffffffff1673ffffffffffffffffffffffffffffffffffffffff16815260200190815260200160002060008282540192505081905550816002600083815260200190815260200160002060006101000a81548173ffffffffffffffffffffffffffffffffffffffff021916908373ffffffffffffffffffffffffffffffffffffffff160217905550808273ffffffffffffffffffffffffffffffffffffffff16600073ffffffffffffffffffffffffffffffffffffffff167fddf252ad1be2c89b69c2b068fc378daa952ba7f163c4a11628f55a4df523b3ef60405160405180910390a46120dc60008383600161176d565b5050565b60007f01ffc9a7000000000000000000000000000000000000000000000000000000007bffffffffffffffffffffffffffffffffffffffffffffffffffffffff1916827bffffffffffffffffffffffffffffffffffffffffffffffffffffffff1916149050919050565b50505050565b6008805490506009600083815260200190815260200160002081905550600881908060018154018082558091505060019003906000526020600020016000909190919091505550565b600060016121a6846108a6565b6121b09190613903565b9050600060076000848152602001908152602001600020549050818114612295576000600660008673ffffffffffffffffffffffffffffffffffffffff1673ffffffffffffffffffffffffffffffffffffffff168152602001908152602001600020600084815260200190815260200160002054905080600660008773ffffffffffffffffffffffffffffffffffffffff1673ffffffffffffffffffffffffffffffffffffffff168152602001908152602001600020600084815260200190815260200160002081905550816007600083815260200190815260200160002081905550505b6007600084815260200190815260200160002060009055600660008573ffffffffffffffffffffffffffffffffffffffff1673ffffffffffffffffffffffffffffffffffffffff16815260200190815260200160002060008381526020019081526020016000206000905550505050565b6000600160088054905061231a9190613903565b905060006009600084815260200190815260200160002054905060006008838154811061234a57612349613087565b5b90600052602060002001549050806008838154811061236c5761236b613087565b5b9060005260206000200181905550816009600083815260200190815260200160002081905550600960008581526020019081526020016000206000905560088054806123bb576123ba613937565b5b6001900381819060005260206000200160009055905550505050565b60006123e2836108a6565b905081600660008573ffffffffffffffffffffffffffffffffffffffff1673ffffffffffffffffffffffffffffffffffffffff168152602001908152602001600020600083815260200190815260200160002081905550806007600084815260200190815260200160002081905550505050565b600080600090507a184f03e93ff9f4daa797ed6e38ed64bf6a1f01000000000000000083106124b4577a184f03e93ff9f4daa797ed6e38ed64bf6a1f01000000000000000083816124aa576124a96137cd565b5b0492506040810190505b6d04ee2d6d415b85acef810000000083106124f1576d04ee2d6d415b85acef810000000083816124e7576124e66137cd565b5b0492506020810190505b662386f26fc10000831061252057662386f26fc100008381612516576125156137cd565b5b0492506010810190505b6305f5e1008310612549576305f5e100838161253f5761253e6137cd565b5b0492506008810190505b612710831061256e576127108381612564576125636137cd565b5b0492506004810190505b606483106125915760648381612587576125866137cd565b5b0492506002810190505b600a83106125a0576001810190505b80915050919050565b8280546125b590612d7b565b90600052602060002090601f0160209004810192826125d7576000855561261e565b82601f106125f057805160ff191683800117855561261e565b8280016001018555821561261e579182015b8281111561261d578251825591602001919060010190612602565b5b50905061262b919061266f565b5090565b50805461263b90612d7b565b6000825580601f1061264d575061266c565b601f01602090049060005260206000209081019061266b919061266f565b5b50565b5b80821115612688576000816000905550600101612670565b5090565b6000604051905090565b600080fd5b600080fd5b60007fffffffff0000000000000000000000000000000000000000000000000000000082169050919050565b6126d5816126a0565b81146126e057600080fd5b50565b6000813590506126f2816126cc565b92915050565b60006020828403121561270e5761270d612696565b5b600061271c848285016126e3565b91505092915050565b60008115159050919050565b61273a81612725565b82525050565b60006020820190506127556000830184612731565b92915050565b600081519050919050565b600082825260208201905092915050565b60005b8381101561279557808201518184015260208101905061277a565b838111156127a4576000848401525b50505050565b6000601f19601f8301169050919050565b60006127c68261275b565b6127d08185612766565b93506127e0818560208601612777565b6127e9816127aa565b840191505092915050565b6000602082019050818103600083015261280e81846127bb565b905092915050565b6000819050919050565b61282981612816565b811461283457600080fd5b50565b60008135905061284681612820565b92915050565b60006020828403121561286257612861612696565b5b600061287084828501612837565b91505092915050565b600073ffffffffffffffffffffffffffffffffffffffff82169050919050565b60006128a482612879565b9050919050565b6128b481612899565b82525050565b60006020820190506128cf60008301846128ab565b92915050565b6128de81612899565b81146128e957600080fd5b50565b6000813590506128fb816128d5565b92915050565b6000806040838503121561291857612917612696565b5b6000612926858286016128ec565b925050602061293785828601612837565b9150509250929050565b61294a81612816565b82525050565b60006020820190506129656000830184612941565b92915050565b60008060006060848603121561298457612983612696565b5b6000612992868287016128ec565b93505060206129a3868287016128ec565b92505060406129b486828701612837565b9150509250925092565b6000602082840312156129d4576129d3612696565b5b60006129e2848285016128ec565b91505092915050565b6129f481612725565b81146129ff57600080fd5b50565b600081359050612a11816129eb565b92915050565b60008060408385031215612a2e57612a2d612696565b5b6000612a3c858286016128ec565b9250506020612a4d85828601612a02565b9150509250929050565b600080fd5b600080fd5b7f4e487b7100000000000000000000000000000000000000000000000000000000600052604160045260246000fd5b612a99826127aa565b810181811067ffffffffffffffff82111715612ab857612ab7612a61565b5b80604052505050565b6000612acb61268c565b9050612ad78282612a90565b919050565b600067ffffffffffffffff821115612af757612af6612a61565b5b612b00826127aa565b9050602081019050919050565b82818337600083830152505050565b6000612b2f612b2a84612adc565b612ac1565b905082815260208101848484011115612b4b57612b4a612a5c565b5b612b56848285612b0d565b509392505050565b600082601f830112612b7357612b72612a57565b5b8135612b83848260208601612b1c565b91505092915050565b60008060008060808587031215612ba657612ba5612696565b5b6000612bb4878288016128ec565b9450506020612bc5878288016128ec565b9350506040612bd687828801612837565b925050606085013567ffffffffffffffff811115612bf757612bf661269b565b5b612c0387828801612b5e565b91505092959194509250565b600067ffffffffffffffff821115612c2a57612c29612a61565b5b612c33826127aa565b9050602081019050919050565b6000612c53612c4e84612c0f565b612ac1565b905082815260208101848484011115612c6f57612c6e612a5c565b5b612c7a848285612b0d565b509392505050565b600082601f830112612c9757612c96612a57565b5b8135612ca7848260208601612c40565b91505092915050565b60008060408385031215612cc757612cc6612696565b5b6000612cd5858286016128ec565b925050602083013567ffffffffffffffff811115612cf657612cf561269b565b5b612d0285828601612c82565b9150509250929050565b60008060408385031215612d2357612d22612696565b5b6000612d31858286016128ec565b9250506020612d42858286016128ec565b9150509250929050565b7f4e487b7100000000000000000000000000000000000000000000000000000000600052602260045260246000fd5b60006002820490506001821680612d9357607f821691505b60208210811415612da757612da6612d4c565b5b50919050565b7f4552433732313a20617070726f76616c20746f2063757272656e74206f776e6560008201527f7200000000000000000000000000000000000000000000000000000000000000602082015250565b6000612e09602183612766565b9150612e1482612dad565b604082019050919050565b60006020820190508181036000830152612e3881612dfc565b9050919050565b7f4552433732313a20617070726f76652063616c6c6572206973206e6f7420746f60008201527f6b656e206f776e6572206f7220617070726f76656420666f7220616c6c000000602082015250565b6000612e9b603d83612766565b9150612ea682612e3f565b604082019050919050565b60006020820190508181036000830152612eca81612e8e565b9050919050565b7f4552433732313a2063616c6c6572206973206e6f7420746f6b656e206f776e6560008201527f72206f7220617070726f76656400000000000000000000000000000000000000602082015250565b6000612f2d602d83612766565b9150612f3882612ed1565b604082019050919050565b60006020820190508181036000830152612f5c81612f20565b9050919050565b7f455243373231456e756d657261626c653a206f776e657220696e646578206f7560008201527f74206f6620626f756e6473000000000000000000000000000000000000000000602082015250565b6000612fbf602b83612766565b9150612fca82612f63565b604082019050919050565b60006020820190508181036000830152612fee81612fb2565b9050919050565b7f455243373231456e756d657261626c653a20676c6f62616c20696e646578206f60008201527f7574206f6620626f756e64730000000000000000000000000000000000000000602082015250565b6000613051602c83612766565b915061305c82612ff5565b604082019050919050565b6000602082019050818103600083015261308081613044565b9050919050565b7f4e487b7100000000000000000000000000000000000000000000000000000000600052603260045260246000fd5b7f4552433732313a20696e76616c696420746f6b656e2049440000000000000000600082015250565b60006130ec601883612766565b91506130f7826130b6565b602082019050919050565b6000602082019050818103600083015261311b816130df565b9050919050565b7f4552433732313a2061646472657373207a65726f206973206e6f74206120766160008201527f6c6964206f776e65720000000000000000000000000000000000000000000000602082015250565b600061317e602983612766565b915061318982613122565b604082019050919050565b600060208201905081810360008301526131ad81613171565b9050919050565b7f49276d20736f72727920616c6c204e4654732068617665206265656e206d696e60008201527f7465640000000000000000000000000000000000000000000000000000000000602082015250565b6000613210602383612766565b915061321b826131b4565b604082019050919050565b6000602082019050818103600083015261323f81613203565b9050919050565b7f4f776e61626c653a206e6577206f776e657220697320746865207a65726f206160008201527f6464726573730000000000000000000000000000000000000000000000000000602082015250565b60006132a2602683612766565b91506132ad82613246565b604082019050919050565b600060208201905081810360008301526132d181613295565b9050919050565b7f4552433732313a207472616e736665722066726f6d20696e636f72726563742060008201527f6f776e6572000000000000000000000000000000000000000000000000000000602082015250565b6000613334602583612766565b915061333f826132d8565b604082019050919050565b6000602082019050818103600083015261336381613327565b9050919050565b7f4552433732313a207472616e7366657220746f20746865207a65726f2061646460008201527f7265737300000000000000000000000000000000000000000000000000000000602082015250565b60006133c6602483612766565b91506133d18261336a565b604082019050919050565b600060208201905081810360008301526133f5816133b9565b9050919050565b7f4f776e61626c653a2063616c6c6572206973206e6f7420746865206f776e6572600082015250565b6000613432602083612766565b915061343d826133fc565b602082019050919050565b6000602082019050818103600083015261346181613425565b9050919050565b7f4552433732313a20617070726f766520746f2063616c6c657200000000000000600082015250565b600061349e601983612766565b91506134a982613468565b602082019050919050565b600060208201905081810360008301526134cd81613491565b9050919050565b7f4552433732313a207472616e7366657220746f206e6f6e20455243373231526560008201527f63656976657220696d706c656d656e7465720000000000000000000000000000602082015250565b6000613530603283612766565b915061353b826134d4565b604082019050919050565b6000602082019050818103600083015261355f81613523565b9050919050565b600081905092915050565b600061357c8261275b565b6135868185613566565b9350613596818560208601612777565b80840191505092915050565b60006135ae8285613571565b91506135ba8284613571565b91508190509392505050565b7f45524337323155524953746f726167653a2055524920736574206f66206e6f6e60008201527f6578697374656e7420746f6b656e000000000000000000000000000000000000602082015250565b6000613622602e83612766565b915061362d826135c6565b604082019050919050565b6000602082019050818103600083015261365181613615565b9050919050565b600081519050919050565b600082825260208201905092915050565b600061367f82613658565b6136898185613663565b9350613699818560208601612777565b6136a2816127aa565b840191505092915050565b60006080820190506136c260008301876128ab565b6136cf60208301866128ab565b6136dc6040830185612941565b81810360608301526136ee8184613674565b905095945050505050565b600081519050613708816126cc565b92915050565b60006020828403121561372457613723612696565b5b6000613732848285016136f9565b91505092915050565b7f455243373231456e756d657261626c653a20636f6e736563757469766520747260008201527f616e7366657273206e6f7420737570706f727465640000000000000000000000602082015250565b6000613797603583612766565b91506137a28261373b565b604082019050919050565b600060208201905081810360008301526137c68161378a565b9050919050565b7f4e487b7100000000000000000000000000000000000000000000000000000000600052601260045260246000fd5b7f4552433732313a206d696e7420746f20746865207a65726f2061646472657373600082015250565b6000613832602083612766565b915061383d826137fc565b602082019050919050565b6000602082019050818103600083015261386181613825565b9050919050565b7f4552433732313a20746f6b656e20616c7265616479206d696e74656400000000600082015250565b600061389e601c83612766565b91506138a982613868565b602082019050919050565b600060208201905081810360008301526138cd81613891565b9050919050565b7f4e487b7100000000000000000000000000000000000000000000000000000000600052601160045260246000fd5b600061390e82612816565b915061391983612816565b92508282101561392c5761392b6138d4565b5b828203905092915050565b7f4e487b7100000000000000000000000000000000000000000000000000000000600052603160045260246000fdfea26469706673582212204a91092b2a1a80260456e9e20bc007b5ac9b86d274247ded1b46596a882ae0c964736f6c63430008090033",
			"opcodes": "PUSH1 0x80 PUSH1 0x40 MSTORE PUSH2 0x2710 PUSH1 0xD SSTORE CALLVALUE DUP1 ISZERO PUSH3 0x17 JUMPI PUSH1 0x0 DUP1 REVERT JUMPDEST POP PUSH1 0x40 MLOAD DUP1 PUSH1 0x40 ADD PUSH1 0x40 MSTORE DUP1 PUSH1 0x6 DUP2 MSTORE PUSH1 0x20 ADD PUSH32 0x55746F7069610000000000000000000000000000000000000000000000000000 DUP2 MSTORE POP PUSH1 0x40 MLOAD DUP1 PUSH1 0x40 ADD PUSH1 0x40 MSTORE DUP1 PUSH1 0x4 DUP2 MSTORE PUSH1 0x20 ADD PUSH32 0x55544F5000000000000000000000000000000000000000000000000000000000 DUP2 MSTORE POP DUP2 PUSH1 0x0 SWAP1 DUP1 MLOAD SWAP1 PUSH1 0x20 ADD SWAP1 PUSH3 0x9C SWAP3 SWAP2 SWAP1 PUSH3 0x1AC JUMP JUMPDEST POP DUP1 PUSH1 0x1 SWAP1 DUP1 MLOAD SWAP1 PUSH1 0x20 ADD SWAP1 PUSH3 0xB5 SWAP3 SWAP2 SWAP1 PUSH3 0x1AC JUMP JUMPDEST POP POP POP PUSH3 0xD8 PUSH3 0xCC PUSH3 0xDE PUSH1 0x20 SHL PUSH1 0x20 SHR JUMP JUMPDEST PUSH3 0xE6 PUSH1 0x20 SHL PUSH1 0x20 SHR JUMP JUMPDEST PUSH3 0x2C1 JUMP JUMPDEST PUSH1 0x0 CALLER SWAP1 POP SWAP1 JUMP JUMPDEST PUSH1 0x0 PUSH1 0xB PUSH1 0x0 SWAP1 SLOAD SWAP1 PUSH2 0x100 EXP SWAP1 DIV PUSH20 0xFFFFFFFFFFFFFFFFFFFFFFFFFFFFFFFFFFFFFFFF AND SWAP1 POP DUP2 PUSH1 0xB PUSH1 0x0 PUSH2 0x100 EXP DUP2 SLOAD DUP2 PUSH20 0xFFFFFFFFFFFFFFFFFFFFFFFFFFFFFFFFFFFFFFFF MUL NOT AND SWAP1 DUP4 PUSH20 0xFFFFFFFFFFFFFFFFFFFFFFFFFFFFFFFFFFFFFFFF AND MUL OR SWAP1 SSTORE POP DUP2 PUSH20 0xFFFFFFFFFFFFFFFFFFFFFFFFFFFFFFFFFFFFFFFF AND DUP2 PUSH20 0xFFFFFFFFFFFFFFFFFFFFFFFFFFFFFFFFFFFFFFFF AND PUSH32 0x8BE0079C531659141344CD1FD0A4F28419497F9722A3DAAFE3B4186F6B6457E0 PUSH1 0x40 MLOAD PUSH1 0x40 MLOAD DUP1 SWAP2 SUB SWAP1 LOG3 POP POP JUMP JUMPDEST DUP3 DUP1 SLOAD PUSH3 0x1BA SWAP1 PUSH3 0x28B JUMP JUMPDEST SWAP1 PUSH1 0x0 MSTORE PUSH1 0x20 PUSH1 0x0 KECCAK256 SWAP1 PUSH1 0x1F ADD PUSH1 0x20 SWAP1 DIV DUP2 ADD SWAP3 DUP3 PUSH3 0x1DE JUMPI PUSH1 0x0 DUP6 SSTORE PUSH3 0x22A JUMP JUMPDEST DUP3 PUSH1 0x1F LT PUSH3 0x1F9 JUMPI DUP1 MLOAD PUSH1 0xFF NOT AND DUP4 DUP1 ADD OR DUP6 SSTORE PUSH3 0x22A JUMP JUMPDEST DUP3 DUP1 ADD PUSH1 0x1 ADD DUP6 SSTORE DUP3 ISZERO PUSH3 0x22A JUMPI SWAP2 DUP3 ADD JUMPDEST DUP3 DUP2 GT ISZERO PUSH3 0x229 JUMPI DUP3 MLOAD DUP3 SSTORE SWAP2 PUSH1 0x20 ADD SWAP2 SWAP1 PUSH1 0x1 ADD SWAP1 PUSH3 0x20C JUMP JUMPDEST JUMPDEST POP SWAP1 POP PUSH3 0x239 SWAP2 SWAP1 PUSH3 0x23D JUMP JUMPDEST POP SWAP1 JUMP JUMPDEST JUMPDEST DUP1 DUP3 GT ISZERO PUSH3 0x258 JUMPI PUSH1 0x0 DUP2 PUSH1 0x0 SWAP1 SSTORE POP PUSH1 0x1 ADD PUSH3 0x23E JUMP JUMPDEST POP SWAP1 JUMP JUMPDEST PUSH32 0x4E487B7100000000000000000000000000000000000000000000000000000000 PUSH1 0x0 MSTORE PUSH1 0x22 PUSH1 0x4 MSTORE PUSH1 0x24 PUSH1 0x0 REVERT JUMPDEST PUSH1 0x0 PUSH1 0x2 DUP3 DIV SWAP1 POP PUSH1 0x1 DUP3 AND DUP1 PUSH3 0x2A4 JUMPI PUSH1 0x7F DUP3 AND SWAP2 POP JUMPDEST PUSH1 0x20 DUP3 LT DUP2 EQ ISZERO PUSH3 0x2BB JUMPI PUSH3 0x2BA PUSH3 0x25C JUMP JUMPDEST JUMPDEST POP SWAP2 SWAP1 POP JUMP JUMPDEST PUSH2 0x399C DUP1 PUSH3 0x2D1 PUSH1 0x0 CODECOPY PUSH1 0x0 RETURN INVALID PUSH1 0x80 PUSH1 0x40 MSTORE CALLVALUE DUP1 ISZERO PUSH2 0x10 JUMPI PUSH1 0x0 DUP1 REVERT JUMPDEST POP PUSH1 0x4 CALLDATASIZE LT PUSH2 0x137 JUMPI PUSH1 0x0 CALLDATALOAD PUSH1 0xE0 SHR DUP1 PUSH4 0x6352211E GT PUSH2 0xB8 JUMPI DUP1 PUSH4 0xA22CB465 GT PUSH2 0x7C JUMPI DUP1 PUSH4 0xA22CB465 EQ PUSH2 0x34E JUMPI DUP1 PUSH4 0xB88D4FDE EQ PUSH2 0x36A JUMPI DUP1 PUSH4 0xC87B56DD EQ PUSH2 0x386 JUMPI DUP1 PUSH4 0xD204C45E EQ PUSH2 0x3B6 JUMPI DUP1 PUSH4 0xE985E9C5 EQ PUSH2 0x3D2 JUMPI DUP1 PUSH4 0xF2FDE38B EQ PUSH2 0x402 JUMPI PUSH2 0x137 JUMP JUMPDEST DUP1 PUSH4 0x6352211E EQ PUSH2 0x2A8 JUMPI DUP1 PUSH4 0x70A08231 EQ PUSH2 0x2D8 JUMPI DUP1 PUSH4 0x715018A6 EQ PUSH2 0x308 JUMPI DUP1 PUSH4 0x8DA5CB5B EQ PUSH2 0x312 JUMPI DUP1 PUSH4 0x95D89B41 EQ PUSH2 0x330 JUMPI PUSH2 0x137 JUMP JUMPDEST DUP1 PUSH4 0x23B872DD GT PUSH2 0xFF JUMPI DUP1 PUSH4 0x23B872DD EQ PUSH2 0x1F4 JUMPI DUP1 PUSH4 0x2F745C59 EQ PUSH2 0x210 JUMPI DUP1 PUSH4 0x42842E0E EQ PUSH2 0x240 JUMPI DUP1 PUSH4 0x42966C68 EQ PUSH2 0x25C JUMPI DUP1 PUSH4 0x4F6CCCE7 EQ PUSH2 0x278 JUMPI PUSH2 0x137 JUMP JUMPDEST DUP1 PUSH4 0x1FFC9A7 EQ PUSH2 0x13C JUMPI DUP1 PUSH4 0x6FDDE03 EQ PUSH2 0x16C JUMPI DUP1 PUSH4 0x81812FC EQ PUSH2 0x18A JUMPI DUP1 PUSH4 0x95EA7B3 EQ PUSH2 0x1BA JUMPI DUP1 PUSH4 0x18160DDD EQ PUSH2 0x1D6 JUMPI JUMPDEST PUSH1 0x0 DUP1 REVERT JUMPDEST PUSH2 0x156 PUSH1 0x4 DUP1 CALLDATASIZE SUB DUP2 ADD SWAP1 PUSH2 0x151 SWAP2 SWAP1 PUSH2 0x26F8 JUMP JUMPDEST PUSH2 0x41E JUMP JUMPDEST PUSH1 0x40 MLOAD PUSH2 0x163 SWAP2 SWAP1 PUSH2 0x2740 JUMP JUMPDEST PUSH1 0x40 MLOAD DUP1 SWAP2 SUB SWAP1 RETURN JUMPDEST PUSH2 0x174 PUSH2 0x430 JUMP JUMPDEST PUSH1 0x40 MLOAD PUSH2 0x181 SWAP2 SWAP1 PUSH2 0x27F4 JUMP JUMPDEST PUSH1 0x40 MLOAD DUP1 SWAP2 SUB SWAP1 RETURN JUMPDEST PUSH2 0x1A4 PUSH1 0x4 DUP1 CALLDATASIZE SUB DUP2 ADD SWAP1 PUSH2 0x19F SWAP2 SWAP1 PUSH2 0x284C JUMP JUMPDEST PUSH2 0x4C2 JUMP JUMPDEST PUSH1 0x40 MLOAD PUSH2 0x1B1 SWAP2 SWAP1 PUSH2 0x28BA JUMP JUMPDEST PUSH1 0x40 MLOAD DUP1 SWAP2 SUB SWAP1 RETURN JUMPDEST PUSH2 0x1D4 PUSH1 0x4 DUP1 CALLDATASIZE SUB DUP2 ADD SWAP1 PUSH2 0x1CF SWAP2 SWAP1 PUSH2 0x2901 JUMP JUMPDEST PUSH2 0x508 JUMP JUMPDEST STOP JUMPDEST PUSH2 0x1DE PUSH2 0x620 JUMP JUMPDEST PUSH1 0x40 MLOAD PUSH2 0x1EB SWAP2 SWAP1 PUSH2 0x2950 JUMP JUMPDEST PUSH1 0x40 MLOAD DUP1 SWAP2 SUB SWAP1 RETURN JUMPDEST PUSH2 0x20E PUSH1 0x4 DUP1 CALLDATASIZE SUB DUP2 ADD SWAP1 PUSH2 0x209 SWAP2 SWAP1 PUSH2 0x296B JUMP JUMPDEST PUSH2 0x62D JUMP JUMPDEST STOP JUMPDEST PUSH2 0x22A PUSH1 0x4 DUP1 CALLDATASIZE SUB DUP2 ADD SWAP1 PUSH2 0x225 SWAP2 SWAP1 PUSH2 0x2901 JUMP JUMPDEST PUSH2 0x68D JUMP JUMPDEST PUSH1 0x40 MLOAD PUSH2 0x237 SWAP2 SWAP1 PUSH2 0x2950 JUMP JUMPDEST PUSH1 0x40 MLOAD DUP1 SWAP2 SUB SWAP1 RETURN JUMPDEST PUSH2 0x25A PUSH1 0x4 DUP1 CALLDATASIZE SUB DUP2 ADD SWAP1 PUSH2 0x255 SWAP2 SWAP1 PUSH2 0x296B JUMP JUMPDEST PUSH2 0x732 JUMP JUMPDEST STOP JUMPDEST PUSH2 0x276 PUSH1 0x4 DUP1 CALLDATASIZE SUB DUP2 ADD SWAP1 PUSH2 0x271 SWAP2 SWAP1 PUSH2 0x284C JUMP JUMPDEST PUSH2 0x752 JUMP JUMPDEST STOP JUMPDEST PUSH2 0x292 PUSH1 0x4 DUP1 CALLDATASIZE SUB DUP2 ADD SWAP1 PUSH2 0x28D SWAP2 SWAP1 PUSH2 0x284C JUMP JUMPDEST PUSH2 0x7AE JUMP JUMPDEST PUSH1 0x40 MLOAD PUSH2 0x29F SWAP2 SWAP1 PUSH2 0x2950 JUMP JUMPDEST PUSH1 0x40 MLOAD DUP1 SWAP2 SUB SWAP1 RETURN JUMPDEST PUSH2 0x2C2 PUSH1 0x4 DUP1 CALLDATASIZE SUB DUP2 ADD SWAP1 PUSH2 0x2BD SWAP2 SWAP1 PUSH2 0x284C JUMP JUMPDEST PUSH2 0x81F JUMP JUMPDEST PUSH1 0x40 MLOAD PUSH2 0x2CF SWAP2 SWAP1 PUSH2 0x28BA JUMP JUMPDEST PUSH1 0x40 MLOAD DUP1 SWAP2 SUB SWAP1 RETURN JUMPDEST PUSH2 0x2F2 PUSH1 0x4 DUP1 CALLDATASIZE SUB DUP2 ADD SWAP1 PUSH2 0x2ED SWAP2 SWAP1 PUSH2 0x29BE JUMP JUMPDEST PUSH2 0x8A6 JUMP JUMPDEST PUSH1 0x40 MLOAD PUSH2 0x2FF SWAP2 SWAP1 PUSH2 0x2950 JUMP JUMPDEST PUSH1 0x40 MLOAD DUP1 SWAP2 SUB SWAP1 RETURN JUMPDEST PUSH2 0x310 PUSH2 0x95E JUMP JUMPDEST STOP JUMPDEST PUSH2 0x31A PUSH2 0x972 JUMP JUMPDEST PUSH1 0x40 MLOAD PUSH2 0x327 SWAP2 SWAP1 PUSH2 0x28BA JUMP JUMPDEST PUSH1 0x40 MLOAD DUP1 SWAP2 SUB SWAP1 RETURN JUMPDEST PUSH2 0x338 PUSH2 0x99C JUMP JUMPDEST PUSH1 0x40 MLOAD PUSH2 0x345 SWAP2 SWAP1 PUSH2 0x27F4 JUMP JUMPDEST PUSH1 0x40 MLOAD DUP1 SWAP2 SUB SWAP1 RETURN JUMPDEST PUSH2 0x368 PUSH1 0x4 DUP1 CALLDATASIZE SUB DUP2 ADD SWAP1 PUSH2 0x363 SWAP2 SWAP1 PUSH2 0x2A17 JUMP JUMPDEST PUSH2 0xA2E JUMP JUMPDEST STOP JUMPDEST PUSH2 0x384 PUSH1 0x4 DUP1 CALLDATASIZE SUB DUP2 ADD SWAP1 PUSH2 0x37F SWAP2 SWAP1 PUSH2 0x2B8C JUMP JUMPDEST PUSH2 0xA44 JUMP JUMPDEST STOP JUMPDEST PUSH2 0x3A0 PUSH1 0x4 DUP1 CALLDATASIZE SUB DUP2 ADD SWAP1 PUSH2 0x39B SWAP2 SWAP1 PUSH2 0x284C JUMP JUMPDEST PUSH2 0xAA6 JUMP JUMPDEST PUSH1 0x40 MLOAD PUSH2 0x3AD SWAP2 SWAP1 PUSH2 0x27F4 JUMP JUMPDEST PUSH1 0x40 MLOAD DUP1 SWAP2 SUB SWAP1 RETURN JUMPDEST PUSH2 0x3D0 PUSH1 0x4 DUP1 CALLDATASIZE SUB DUP2 ADD SWAP1 PUSH2 0x3CB SWAP2 SWAP1 PUSH2 0x2CB0 JUMP JUMPDEST PUSH2 0xAB8 JUMP JUMPDEST STOP JUMPDEST PUSH2 0x3EC PUSH1 0x4 DUP1 CALLDATASIZE SUB DUP2 ADD SWAP1 PUSH2 0x3E7 SWAP2 SWAP1 PUSH2 0x2D0C JUMP JUMPDEST PUSH2 0xB36 JUMP JUMPDEST PUSH1 0x40 MLOAD PUSH2 0x3F9 SWAP2 SWAP1 PUSH2 0x2740 JUMP JUMPDEST PUSH1 0x40 MLOAD DUP1 SWAP2 SUB SWAP1 RETURN JUMPDEST PUSH2 0x41C PUSH1 0x4 DUP1 CALLDATASIZE SUB DUP2 ADD SWAP1 PUSH2 0x417 SWAP2 SWAP1 PUSH2 0x29BE JUMP JUMPDEST PUSH2 0xBCA JUMP JUMPDEST STOP JUMPDEST PUSH1 0x0 PUSH2 0x429 DUP3 PUSH2 0xC4E JUMP JUMPDEST SWAP1 POP SWAP2 SWAP1 POP JUMP JUMPDEST PUSH1 0x60 PUSH1 0x0 DUP1 SLOAD PUSH2 0x43F SWAP1 PUSH2 0x2D7B JUMP JUMPDEST DUP1 PUSH1 0x1F ADD PUSH1 0x20 DUP1 SWAP2 DIV MUL PUSH1 0x20 ADD PUSH1 0x40 MLOAD SWAP1 DUP2 ADD PUSH1 0x40 MSTORE DUP1 SWAP3 SWAP2 SWAP1 DUP2 DUP2 MSTORE PUSH1 0x20 ADD DUP3 DUP1 SLOAD PUSH2 0x46B SWAP1 PUSH2 0x2D7B JUMP JUMPDEST DUP1 ISZERO PUSH2 0x4B8 JUMPI DUP1 PUSH1 0x1F LT PUSH2 0x48D JUMPI PUSH2 0x100 DUP1 DUP4 SLOAD DIV MUL DUP4 MSTORE SWAP2 PUSH1 0x20 ADD SWAP2 PUSH2 0x4B8 JUMP JUMPDEST DUP3 ADD SWAP2 SWAP1 PUSH1 0x0 MSTORE PUSH1 0x20 PUSH1 0x0 KECCAK256 SWAP1 JUMPDEST DUP2 SLOAD DUP2 MSTORE SWAP1 PUSH1 0x1 ADD SWAP1 PUSH1 0x20 ADD DUP1 DUP4 GT PUSH2 0x49B JUMPI DUP3 SWAP1 SUB PUSH1 0x1F AND DUP3 ADD SWAP2 JUMPDEST POP POP POP POP POP SWAP1 POP SWAP1 JUMP JUMPDEST PUSH1 0x0 PUSH2 0x4CD DUP3 PUSH2 0xCAF JUMP JUMPDEST PUSH1 0x4 PUSH1 0x0 DUP4 DUP2 MSTORE PUSH1 0x20 ADD SWAP1 DUP2 MSTORE PUSH1 0x20 ADD PUSH1 0x0 KECCAK256 PUSH1 0x0 SWAP1 SLOAD SWAP1 PUSH2 0x100 EXP SWAP1 DIV PUSH20 0xFFFFFFFFFFFFFFFFFFFFFFFFFFFFFFFFFFFFFFFF AND SWAP1 POP SWAP2 SWAP1 POP JUMP JUMPDEST PUSH1 0x0 PUSH2 0x513 DUP3 PUSH2 0x81F JUMP JUMPDEST SWAP1 POP DUP1 PUSH20 0xFFFFFFFFFFFFFFFFFFFFFFFFFFFFFFFFFFFFFFFF AND DUP4 PUSH20 0xFFFFFFFFFFFFFFFFFFFFFFFFFFFFFFFFFFFFFFFF AND EQ ISZERO PUSH2 0x584 JUMPI PUSH1 0x40 MLOAD PUSH32 0x8C379A000000000000000000000000000000000000000000000000000000000 DUP2 MSTORE PUSH1 0x4 ADD PUSH2 0x57B SWAP1 PUSH2 0x2E1F JUMP JUMPDEST PUSH1 0x40 MLOAD DUP1 SWAP2 SUB SWAP1 REVERT JUMPDEST DUP1 PUSH20 0xFFFFFFFFFFFFFFFFFFFFFFFFFFFFFFFFFFFFFFFF AND PUSH2 0x5A3 PUSH2 0xCFA JUMP JUMPDEST PUSH20 0xFFFFFFFFFFFFFFFFFFFFFFFFFFFFFFFFFFFFFFFF AND EQ DUP1 PUSH2 0x5D2 JUMPI POP PUSH2 0x5D1 DUP2 PUSH2 0x5CC PUSH2 0xCFA JUMP JUMPDEST PUSH2 0xB36 JUMP JUMPDEST JUMPDEST PUSH2 0x611 JUMPI PUSH1 0x40 MLOAD PUSH32 0x8C379A000000000000000000000000000000000000000000000000000000000 DUP2 MSTORE PUSH1 0x4 ADD PUSH2 0x608 SWAP1 PUSH2 0x2EB1 JUMP JUMPDEST PUSH1 0x40 MLOAD DUP1 SWAP2 SUB SWAP1 REVERT JUMPDEST PUSH2 0x61B DUP4 DUP4 PUSH2 0xD02 JUMP JUMPDEST POP POP POP JUMP JUMPDEST PUSH1 0x0 PUSH1 0x8 DUP1 SLOAD SWAP1 POP SWAP1 POP SWAP1 JUMP JUMPDEST PUSH2 0x63E PUSH2 0x638 PUSH2 0xCFA JUMP JUMPDEST DUP3 PUSH2 0xDBB JUMP JUMPDEST PUSH2 0x67D JUMPI PUSH1 0x40 MLOAD PUSH32 0x8C379A000000000000000000000000000000000000000000000000000000000 DUP2 MSTORE PUSH1 0x4 ADD PUSH2 0x674 SWAP1 PUSH2 0x2F43 JUMP JUMPDEST PUSH1 0x40 MLOAD DUP1 SWAP2 SUB SWAP1 REVERT JUMPDEST PUSH2 0x688 DUP4 DUP4 DUP4 PUSH2 0xE50 JUMP JUMPDEST POP POP POP JUMP JUMPDEST PUSH1 0x0 PUSH2 0x698 DUP4 PUSH2 0x8A6 JUMP JUMPDEST DUP3 LT PUSH2 0x6D9 JUMPI PUSH1 0x40 MLOAD PUSH32 0x8C379A000000000000000000000000000000000000000000000000000000000 DUP2 MSTORE PUSH1 0x4 ADD PUSH2 0x6D0 SWAP1 PUSH2 0x2FD5 JUMP JUMPDEST PUSH1 0x40 MLOAD DUP1 SWAP2 SUB SWAP1 REVERT JUMPDEST PUSH1 0x6 PUSH1 0x0 DUP5 PUSH20 0xFFFFFFFFFFFFFFFFFFFFFFFFFFFFFFFFFFFFFFFF AND PUSH20 0xFFFFFFFFFFFFFFFFFFFFFFFFFFFFFFFFFFFFFFFF AND DUP2 MSTORE PUSH1 0x20 ADD SWAP1 DUP2 MSTORE PUSH1 0x20 ADD PUSH1 0x0 KECCAK256 PUSH1 0x0 DUP4 DUP2 MSTORE PUSH1 0x20 ADD SWAP1 DUP2 MSTORE PUSH1 0x20 ADD PUSH1 0x0 KECCAK256 SLOAD SWAP1 POP SWAP3 SWAP2 POP POP JUMP JUMPDEST PUSH2 0x74D DUP4 DUP4 DUP4 PUSH1 0x40 MLOAD DUP1 PUSH1 0x20 ADD PUSH1 0x40 MSTORE DUP1 PUSH1 0x0 DUP2 MSTORE POP PUSH2 0xA44 JUMP JUMPDEST POP POP POP JUMP JUMPDEST PUSH2 0x763 PUSH2 0x75D PUSH2 0xCFA JUMP JUMPDEST DUP3 PUSH2 0xDBB JUMP JUMPDEST PUSH2 0x7A2 JUMPI PUSH1 0x40 MLOAD PUSH32 0x8C379A000000000000000000000000000000000000000000000000000000000 DUP2 MSTORE PUSH1 0x4 ADD PUSH2 0x799 SWAP1 PUSH2 0x2F43 JUMP JUMPDEST PUSH1 0x40 MLOAD DUP1 SWAP2 SUB SWAP1 REVERT JUMPDEST PUSH2 0x7AB DUP2 PUSH2 0x114A JUMP JUMPDEST POP JUMP JUMPDEST PUSH1 0x0 PUSH2 0x7B8 PUSH2 0x620 JUMP JUMPDEST DUP3 LT PUSH2 0x7F9 JUMPI PUSH1 0x40 MLOAD PUSH32 0x8C379A000000000000000000000000000000000000000000000000000000000 DUP2 MSTORE PUSH1 0x4 ADD PUSH2 0x7F0 SWAP1 PUSH2 0x3067 JUMP JUMPDEST PUSH1 0x40 MLOAD DUP1 SWAP2 SUB SWAP1 REVERT JUMPDEST PUSH1 0x8 DUP3 DUP2 SLOAD DUP2 LT PUSH2 0x80D JUMPI PUSH2 0x80C PUSH2 0x3087 JUMP JUMPDEST JUMPDEST SWAP1 PUSH1 0x0 MSTORE PUSH1 0x20 PUSH1 0x0 KECCAK256 ADD SLOAD SWAP1 POP SWAP2 SWAP1 POP JUMP JUMPDEST PUSH1 0x0 DUP1 PUSH2 0x82B DUP4 PUSH2 0x1156 JUMP JUMPDEST SWAP1 POP PUSH1 0x0 PUSH20 0xFFFFFFFFFFFFFFFFFFFFFFFFFFFFFFFFFFFFFFFF AND DUP2 PUSH20 0xFFFFFFFFFFFFFFFFFFFFFFFFFFFFFFFFFFFFFFFF AND EQ ISZERO PUSH2 0x89D JUMPI PUSH1 0x40 MLOAD PUSH32 0x8C379A000000000000000000000000000000000000000000000000000000000 DUP2 MSTORE PUSH1 0x4 ADD PUSH2 0x894 SWAP1 PUSH2 0x3102 JUMP JUMPDEST PUSH1 0x40 MLOAD DUP1 SWAP2 SUB SWAP1 REVERT JUMPDEST DUP1 SWAP2 POP POP SWAP2 SWAP1 POP JUMP JUMPDEST PUSH1 0x0 DUP1 PUSH20 0xFFFFFFFFFFFFFFFFFFFFFFFFFFFFFFFFFFFFFFFF AND DUP3 PUSH20 0xFFFFFFFFFFFFFFFFFFFFFFFFFFFFFFFFFFFFFFFF AND EQ ISZERO PUSH2 0x917 JUMPI PUSH1 0x40 MLOAD PUSH32 0x8C379A000000000000000000000000000000000000000000000000000000000 DUP2 MSTORE PUSH1 0x4 ADD PUSH2 0x90E SWAP1 PUSH2 0x3194 JUMP JUMPDEST PUSH1 0x40 MLOAD DUP1 SWAP2 SUB SWAP1 REVERT JUMPDEST PUSH1 0x3 PUSH1 0x0 DUP4 PUSH20 0xFFFFFFFFFFFFFFFFFFFFFFFFFFFFFFFFFFFFFFFF AND PUSH20 0xFFFFFFFFFFFFFFFFFFFFFFFFFFFFFFFFFFFFFFFF AND DUP2 MSTORE PUSH1 0x20 ADD SWAP1 DUP2 MSTORE PUSH1 0x20 ADD PUSH1 0x0 KECCAK256 SLOAD SWAP1 POP SWAP2 SWAP1 POP JUMP JUMPDEST PUSH2 0x966 PUSH2 0x1193 JUMP JUMPDEST PUSH2 0x970 PUSH1 0x0 PUSH2 0x1211 JUMP JUMPDEST JUMP JUMPDEST PUSH1 0x0 PUSH1 0xB PUSH1 0x0 SWAP1 SLOAD SWAP1 PUSH2 0x100 EXP SWAP1 DIV PUSH20 0xFFFFFFFFFFFFFFFFFFFFFFFFFFFFFFFFFFFFFFFF AND SWAP1 POP SWAP1 JUMP JUMPDEST PUSH1 0x60 PUSH1 0x1 DUP1 SLOAD PUSH2 0x9AB SWAP1 PUSH2 0x2D7B JUMP JUMPDEST DUP1 PUSH1 0x1F ADD PUSH1 0x20 DUP1 SWAP2 DIV MUL PUSH1 0x20 ADD PUSH1 0x40 MLOAD SWAP1 DUP2 ADD PUSH1 0x40 MSTORE DUP1 SWAP3 SWAP2 SWAP1 DUP2 DUP2 MSTORE PUSH1 0x20 ADD DUP3 DUP1 SLOAD PUSH2 0x9D7 SWAP1 PUSH2 0x2D7B JUMP JUMPDEST DUP1 ISZERO PUSH2 0xA24 JUMPI DUP1 PUSH1 0x1F LT PUSH2 0x9F9 JUMPI PUSH2 0x100 DUP1 DUP4 SLOAD DIV MUL DUP4 MSTORE SWAP2 PUSH1 0x20 ADD SWAP2 PUSH2 0xA24 JUMP JUMPDEST DUP3 ADD SWAP2 SWAP1 PUSH1 0x0 MSTORE PUSH1 0x20 PUSH1 0x0 KECCAK256 SWAP1 JUMPDEST DUP2 SLOAD DUP2 MSTORE SWAP1 PUSH1 0x1 ADD SWAP1 PUSH1 0x20 ADD DUP1 DUP4 GT PUSH2 0xA07 JUMPI DUP3 SWAP1 SUB PUSH1 0x1F AND DUP3 ADD SWAP2 JUMPDEST POP POP POP POP POP SWAP1 POP SWAP1 JUMP JUMPDEST PUSH2 0xA40 PUSH2 0xA39 PUSH2 0xCFA JUMP JUMPDEST DUP4 DUP4 PUSH2 0x12D7 JUMP JUMPDEST POP POP JUMP JUMPDEST PUSH2 0xA55 PUSH2 0xA4F PUSH2 0xCFA JUMP JUMPDEST DUP4 PUSH2 0xDBB JUMP JUMPDEST PUSH2 0xA94 JUMPI PUSH1 0x40 MLOAD PUSH32 0x8C379A000000000000000000000000000000000000000000000000000000000 DUP2 MSTORE PUSH1 0x4 ADD PUSH2 0xA8B SWAP1 PUSH2 0x2F43 JUMP JUMPDEST PUSH1 0x40 MLOAD DUP1 SWAP2 SUB SWAP1 REVERT JUMPDEST PUSH2 0xAA0 DUP5 DUP5 DUP5 DUP5 PUSH2 0x1444 JUMP JUMPDEST POP POP POP POP JUMP JUMPDEST PUSH1 0x60 PUSH2 0xAB1 DUP3 PUSH2 0x14A0 JUMP JUMPDEST SWAP1 POP SWAP2 SWAP1 POP JUMP JUMPDEST PUSH2 0xAC0 PUSH2 0x1193 JUMP JUMPDEST PUSH1 0x0 PUSH2 0xACC PUSH1 0xC PUSH2 0x15B3 JUMP JUMPDEST SWAP1 POP PUSH1 0xD SLOAD DUP2 GT ISZERO PUSH2 0xB13 JUMPI PUSH1 0x40 MLOAD PUSH32 0x8C379A000000000000000000000000000000000000000000000000000000000 DUP2 MSTORE PUSH1 0x4 ADD PUSH2 0xB0A SWAP1 PUSH2 0x3226 JUMP JUMPDEST PUSH1 0x40 MLOAD DUP1 SWAP2 SUB SWAP1 REVERT JUMPDEST PUSH2 0xB1D PUSH1 0xC PUSH2 0x15C1 JUMP JUMPDEST PUSH2 0xB27 DUP4 DUP3 PUSH2 0x15D7 JUMP JUMPDEST PUSH2 0xB31 DUP2 DUP4 PUSH2 0x15F5 JUMP JUMPDEST POP POP POP JUMP JUMPDEST PUSH1 0x0 PUSH1 0x5 PUSH1 0x0 DUP5 PUSH20 0xFFFFFFFFFFFFFFFFFFFFFFFFFFFFFFFFFFFFFFFF AND PUSH20 0xFFFFFFFFFFFFFFFFFFFFFFFFFFFFFFFFFFFFFFFF AND DUP2 MSTORE PUSH1 0x20 ADD SWAP1 DUP2 MSTORE PUSH1 0x20 ADD PUSH1 0x0 KECCAK256 PUSH1 0x0 DUP4 PUSH20 0xFFFFFFFFFFFFFFFFFFFFFFFFFFFFFFFFFFFFFFFF AND PUSH20 0xFFFFFFFFFFFFFFFFFFFFFFFFFFFFFFFFFFFFFFFF AND DUP2 MSTORE PUSH1 0x20 ADD SWAP1 DUP2 MSTORE PUSH1 0x20 ADD PUSH1 0x0 KECCAK256 PUSH1 0x0 SWAP1 SLOAD SWAP1 PUSH2 0x100 EXP SWAP1 DIV PUSH1 0xFF AND SWAP1 POP SWAP3 SWAP2 POP POP JUMP JUMPDEST PUSH2 0xBD2 PUSH2 0x1193 JUMP JUMPDEST PUSH1 0x0 PUSH20 0xFFFFFFFFFFFFFFFFFFFFFFFFFFFFFFFFFFFFFFFF AND DUP2 PUSH20 0xFFFFFFFFFFFFFFFFFFFFFFFFFFFFFFFFFFFFFFFF AND EQ ISZERO PUSH2 0xC42 JUMPI PUSH1 0x40 MLOAD PUSH32 0x8C379A000000000000000000000000000000000000000000000000000000000 DUP2 MSTORE PUSH1 0x4 ADD PUSH2 0xC39 SWAP1 PUSH2 0x32B8 JUMP JUMPDEST PUSH1 0x40 MLOAD DUP1 SWAP2 SUB SWAP1 REVERT JUMPDEST PUSH2 0xC4B DUP2 PUSH2 0x1211 JUMP JUMPDEST POP JUMP JUMPDEST PUSH1 0x0 PUSH4 0x49064906 PUSH1 0xE0 SHL PUSH28 0xFFFFFFFFFFFFFFFFFFFFFFFFFFFFFFFFFFFFFFFFFFFFFFFFFFFFFFFF NOT AND DUP3 PUSH28 0xFFFFFFFFFFFFFFFFFFFFFFFFFFFFFFFFFFFFFFFFFFFFFFFFFFFFFFFF NOT AND EQ DUP1 PUSH2 0xCA8 JUMPI POP PUSH2 0xCA7 DUP3 PUSH2 0x16A0 JUMP JUMPDEST JUMPDEST SWAP1 POP SWAP2 SWAP1 POP JUMP JUMPDEST PUSH2 0xCB8 DUP2 PUSH2 0x171A JUMP JUMPDEST PUSH2 0xCF7 JUMPI PUSH1 0x40 MLOAD PUSH32 0x8C379A000000000000000000000000000000000000000000000000000000000 DUP2 MSTORE PUSH1 0x4 ADD PUSH2 0xCEE SWAP1 PUSH2 0x3102 JUMP JUMPDEST PUSH1 0x40 MLOAD DUP1 SWAP2 SUB SWAP1 REVERT JUMPDEST POP JUMP JUMPDEST PUSH1 0x0 CALLER SWAP1 POP SWAP1 JUMP JUMPDEST DUP2 PUSH1 0x4 PUSH1 0x0 DUP4 DUP2 MSTORE PUSH1 0x20 ADD SWAP1 DUP2 MSTORE PUSH1 0x20 ADD PUSH1 0x0 KECCAK256 PUSH1 0x0 PUSH2 0x100 EXP DUP2 SLOAD DUP2 PUSH20 0xFFFFFFFFFFFFFFFFFFFFFFFFFFFFFFFFFFFFFFFF MUL NOT AND SWAP1 DUP4 PUSH20 0xFFFFFFFFFFFFFFFFFFFFFFFFFFFFFFFFFFFFFFFF AND MUL OR SWAP1 SSTORE POP DUP1 DUP3 PUSH20 0xFFFFFFFFFFFFFFFFFFFFFFFFFFFFFFFFFFFFFFFF AND PUSH2 0xD75 DUP4 PUSH2 0x81F JUMP JUMPDEST PUSH20 0xFFFFFFFFFFFFFFFFFFFFFFFFFFFFFFFFFFFFFFFF AND PUSH32 0x8C5BE1E5EBEC7D5BD14F71427D1E84F3DD0314C0F7B2291E5B200AC8C7C3B925 PUSH1 0x40 MLOAD PUSH1 0x40 MLOAD DUP1 SWAP2 SUB SWAP1 LOG4 POP POP JUMP JUMPDEST PUSH1 0x0 DUP1 PUSH2 0xDC7 DUP4 PUSH2 0x81F JUMP JUMPDEST SWAP1 POP DUP1 PUSH20 0xFFFFFFFFFFFFFFFFFFFFFFFFFFFFFFFFFFFFFFFF AND DUP5 PUSH20 0xFFFFFFFFFFFFFFFFFFFFFFFFFFFFFFFFFFFFFFFF AND EQ DUP1 PUSH2 0xE09 JUMPI POP PUSH2 0xE08 DUP2 DUP6 PUSH2 0xB36 JUMP JUMPDEST JUMPDEST DUP1 PUSH2 0xE47 JUMPI POP DUP4 PUSH20 0xFFFFFFFFFFFFFFFFFFFFFFFFFFFFFFFFFFFFFFFF AND PUSH2 0xE2F DUP5 PUSH2 0x4C2 JUMP JUMPDEST PUSH20 0xFFFFFFFFFFFFFFFFFFFFFFFFFFFFFFFFFFFFFFFF AND EQ JUMPDEST SWAP2 POP POP SWAP3 SWAP2 POP POP JUMP JUMPDEST DUP3 PUSH20 0xFFFFFFFFFFFFFFFFFFFFFFFFFFFFFFFFFFFFFFFF AND PUSH2 0xE70 DUP3 PUSH2 0x81F JUMP JUMPDEST PUSH20 0xFFFFFFFFFFFFFFFFFFFFFFFFFFFFFFFFFFFFFFFF AND EQ PUSH2 0xEC6 JUMPI PUSH1 0x40 MLOAD PUSH32 0x8C379A000000000000000000000000000000000000000000000000000000000 DUP2 MSTORE PUSH1 0x4 ADD PUSH2 0xEBD SWAP1 PUSH2 0x334A JUMP JUMPDEST PUSH1 0x40 MLOAD DUP1 SWAP2 SUB SWAP1 REVERT JUMPDEST PUSH1 0x0 PUSH20 0xFFFFFFFFFFFFFFFFFFFFFFFFFFFFFFFFFFFFFFFF AND DUP3 PUSH20 0xFFFFFFFFFFFFFFFFFFFFFFFFFFFFFFFFFFFFFFFF AND EQ ISZERO PUSH2 0xF36 JUMPI PUSH1 0x40 MLOAD PUSH32 0x8C379A000000000000000000000000000000000000000000000000000000000 DUP2 MSTORE PUSH1 0x4 ADD PUSH2 0xF2D SWAP1 PUSH2 0x33DC JUMP JUMPDEST PUSH1 0x40 MLOAD DUP1 SWAP2 SUB SWAP1 REVERT JUMPDEST PUSH2 0xF43 DUP4 DUP4 DUP4 PUSH1 0x1 PUSH2 0x175B JUMP JUMPDEST DUP3 PUSH20 0xFFFFFFFFFFFFFFFFFFFFFFFFFFFFFFFFFFFFFFFF AND PUSH2 0xF63 DUP3 PUSH2 0x81F JUMP JUMPDEST PUSH20 0xFFFFFFFFFFFFFFFFFFFFFFFFFFFFFFFFFFFFFFFF AND EQ PUSH2 0xFB9 JUMPI PUSH1 0x40 MLOAD PUSH32 0x8C379A000000000000000000000000000000000000000000000000000000000 DUP2 MSTORE PUSH1 0x4 ADD PUSH2 0xFB0 SWAP1 PUSH2 0x334A JUMP JUMPDEST PUSH1 0x40 MLOAD DUP1 SWAP2 SUB SWAP1 REVERT JUMPDEST PUSH1 0x4 PUSH1 0x0 DUP3 DUP2 MSTORE PUSH1 0x20 ADD SWAP1 DUP2 MSTORE PUSH1 0x20 ADD PUSH1 0x0 KECCAK256 PUSH1 0x0 PUSH2 0x100 EXP DUP2 SLOAD SWAP1 PUSH20 0xFFFFFFFFFFFFFFFFFFFFFFFFFFFFFFFFFFFFFFFF MUL NOT AND SWAP1 SSTORE PUSH1 0x1 PUSH1 0x3 PUSH1 0x0 DUP6 PUSH20 0xFFFFFFFFFFFFFFFFFFFFFFFFFFFFFFFFFFFFFFFF AND PUSH20 0xFFFFFFFFFFFFFFFFFFFFFFFFFFFFFFFFFFFFFFFF AND DUP2 MSTORE PUSH1 0x20 ADD SWAP1 DUP2 MSTORE PUSH1 0x20 ADD PUSH1 0x0 KECCAK256 PUSH1 0x0 DUP3 DUP3 SLOAD SUB SWAP3 POP POP DUP2 SWAP1 SSTORE POP PUSH1 0x1 PUSH1 0x3 PUSH1 0x0 DUP5 PUSH20 0xFFFFFFFFFFFFFFFFFFFFFFFFFFFFFFFFFFFFFFFF AND PUSH20 0xFFFFFFFFFFFFFFFFFFFFFFFFFFFFFFFFFFFFFFFF AND DUP2 MSTORE PUSH1 0x20 ADD SWAP1 DUP2 MSTORE PUSH1 0x20 ADD PUSH1 0x0 KECCAK256 PUSH1 0x0 DUP3 DUP3 SLOAD ADD SWAP3 POP POP DUP2 SWAP1 SSTORE POP DUP2 PUSH1 0x2 PUSH1 0x0 DUP4 DUP2 MSTORE PUSH1 0x20 ADD SWAP1 DUP2 MSTORE PUSH1 0x20 ADD PUSH1 0x0 KECCAK256 PUSH1 0x0 PUSH2 0x100 EXP DUP2 SLOAD DUP2 PUSH20 0xFFFFFFFFFFFFFFFFFFFFFFFFFFFFFFFFFFFFFFFF MUL NOT AND SWAP1 DUP4 PUSH20 0xFFFFFFFFFFFFFFFFFFFFFFFFFFFFFFFFFFFFFFFF AND MUL OR SWAP1 SSTORE POP DUP1 DUP3 PUSH20 0xFFFFFFFFFFFFFFFFFFFFFFFFFFFFFFFFFFFFFFFF AND DUP5 PUSH20 0xFFFFFFFFFFFFFFFFFFFFFFFFFFFFFFFFFFFFFFFF AND PUSH32 0xDDF252AD1BE2C89B69C2B068FC378DAA952BA7F163C4A11628F55A4DF523B3EF PUSH1 0x40 MLOAD PUSH1 0x40 MLOAD DUP1 SWAP2 SUB SWAP1 LOG4 PUSH2 0x1145 DUP4 DUP4 DUP4 PUSH1 0x1 PUSH2 0x176D JUMP JUMPDEST POP POP POP JUMP JUMPDEST PUSH2 0x1153 DUP2 PUSH2 0x1773 JUMP JUMPDEST POP JUMP JUMPDEST PUSH1 0x0 PUSH1 0x2 PUSH1 0x0 DUP4 DUP2 MSTORE PUSH1 0x20 ADD SWAP1 DUP2 MSTORE PUSH1 0x20 ADD PUSH1 0x0 KECCAK256 PUSH1 0x0 SWAP1 SLOAD SWAP1 PUSH2 0x100 EXP SWAP1 DIV PUSH20 0xFFFFFFFFFFFFFFFFFFFFFFFFFFFFFFFFFFFFFFFF AND SWAP1 POP SWAP2 SWAP1 POP JUMP JUMPDEST PUSH2 0x119B PUSH2 0xCFA JUMP JUMPDEST PUSH20 0xFFFFFFFFFFFFFFFFFFFFFFFFFFFFFFFFFFFFFFFF AND PUSH2 0x11B9 PUSH2 0x972 JUMP JUMPDEST PUSH20 0xFFFFFFFFFFFFFFFFFFFFFFFFFFFFFFFFFFFFFFFF AND EQ PUSH2 0x120F JUMPI PUSH1 0x40 MLOAD PUSH32 0x8C379A000000000000000000000000000000000000000000000000000000000 DUP2 MSTORE PUSH1 0x4 ADD PUSH2 0x1206 SWAP1 PUSH2 0x3448 JUMP JUMPDEST PUSH1 0x40 MLOAD DUP1 SWAP2 SUB SWAP1 REVERT JUMPDEST JUMP JUMPDEST PUSH1 0x0 PUSH1 0xB PUSH1 0x0 SWAP1 SLOAD SWAP1 PUSH2 0x100 EXP SWAP1 DIV PUSH20 0xFFFFFFFFFFFFFFFFFFFFFFFFFFFFFFFFFFFFFFFF AND SWAP1 POP DUP2 PUSH1 0xB PUSH1 0x0 PUSH2 0x100 EXP DUP2 SLOAD DUP2 PUSH20 0xFFFFFFFFFFFFFFFFFFFFFFFFFFFFFFFFFFFFFFFF MUL NOT AND SWAP1 DUP4 PUSH20 0xFFFFFFFFFFFFFFFFFFFFFFFFFFFFFFFFFFFFFFFF AND MUL OR SWAP1 SSTORE POP DUP2 PUSH20 0xFFFFFFFFFFFFFFFFFFFFFFFFFFFFFFFFFFFFFFFF AND DUP2 PUSH20 0xFFFFFFFFFFFFFFFFFFFFFFFFFFFFFFFFFFFFFFFF AND PUSH32 0x8BE0079C531659141344CD1FD0A4F28419497F9722A3DAAFE3B4186F6B6457E0 PUSH1 0x40 MLOAD PUSH1 0x40 MLOAD DUP1 SWAP2 SUB SWAP1 LOG3 POP POP JUMP JUMPDEST DUP2 PUSH20 0xFFFFFFFFFFFFFFFFFFFFFFFFFFFFFFFFFFFFFFFF AND DUP4 PUSH20 0xFFFFFFFFFFFFFFFFFFFFFFFFFFFFFFFFFFFFFFFF AND EQ ISZERO PUSH2 0x1346 JUMPI PUSH1 0x40 MLOAD PUSH32 0x8C379A000000000000000000000000000000000000000000000000000000000 DUP2 MSTORE PUSH1 0x4 ADD PUSH2 0x133D SWAP1 PUSH2 0x34B4 JUMP JUMPDEST PUSH1 0x40 MLOAD DUP1 SWAP2 SUB SWAP1 REVERT JUMPDEST DUP1 PUSH1 0x5 PUSH1 0x0 DUP6 PUSH20 0xFFFFFFFFFFFFFFFFFFFFFFFFFFFFFFFFFFFFFFFF AND PUSH20 0xFFFFFFFFFFFFFFFFFFFFFFFFFFFFFFFFFFFFFFFF AND DUP2 MSTORE PUSH1 0x20 ADD SWAP1 DUP2 MSTORE PUSH1 0x20 ADD PUSH1 0x0 KECCAK256 PUSH1 0x0 DUP5 PUSH20 0xFFFFFFFFFFFFFFFFFFFFFFFFFFFFFFFFFFFFFFFF AND PUSH20 0xFFFFFFFFFFFFFFFFFFFFFFFFFFFFFFFFFFFFFFFF AND DUP2 MSTORE PUSH1 0x20 ADD SWAP1 DUP2 MSTORE PUSH1 0x20 ADD PUSH1 0x0 KECCAK256 PUSH1 0x0 PUSH2 0x100 EXP DUP2 SLOAD DUP2 PUSH1 0xFF MUL NOT AND SWAP1 DUP4 ISZERO ISZERO MUL OR SWAP1 SSTORE POP DUP2 PUSH20 0xFFFFFFFFFFFFFFFFFFFFFFFFFFFFFFFFFFFFFFFF AND DUP4 PUSH20 0xFFFFFFFFFFFFFFFFFFFFFFFFFFFFFFFFFFFFFFFF AND PUSH32 0x17307EAB39AB6107E8899845AD3D59BD9653F200F220920489CA2B5937696C31 DUP4 PUSH1 0x40 MLOAD PUSH2 0x1437 SWAP2 SWAP1 PUSH2 0x2740 JUMP JUMPDEST PUSH1 0x40 MLOAD DUP1 SWAP2 SUB SWAP1 LOG3 POP POP POP JUMP JUMPDEST PUSH2 0x144F DUP5 DUP5 DUP5 PUSH2 0xE50 JUMP JUMPDEST PUSH2 0x145B DUP5 DUP5 DUP5 DUP5 PUSH2 0x17C6 JUMP JUMPDEST PUSH2 0x149A JUMPI PUSH1 0x40 MLOAD PUSH32 0x8C379A000000000000000000000000000000000000000000000000000000000 DUP2 MSTORE PUSH1 0x4 ADD PUSH2 0x1491 SWAP1 PUSH2 0x3546 JUMP JUMPDEST PUSH1 0x40 MLOAD DUP1 SWAP2 SUB SWAP1 REVERT JUMPDEST POP POP POP POP JUMP JUMPDEST PUSH1 0x60 PUSH2 0x14AB DUP3 PUSH2 0xCAF JUMP JUMPDEST PUSH1 0x0 PUSH1 0xA PUSH1 0x0 DUP5 DUP2 MSTORE PUSH1 0x20 ADD SWAP1 DUP2 MSTORE PUSH1 0x20 ADD PUSH1 0x0 KECCAK256 DUP1 SLOAD PUSH2 0x14CB SWAP1 PUSH2 0x2D7B JUMP JUMPDEST DUP1 PUSH1 0x1F ADD PUSH1 0x20 DUP1 SWAP2 DIV MUL PUSH1 0x20 ADD PUSH1 0x40 MLOAD SWAP1 DUP2 ADD PUSH1 0x40 MSTORE DUP1 SWAP3 SWAP2 SWAP1 DUP2 DUP2 MSTORE PUSH1 0x20 ADD DUP3 DUP1 SLOAD PUSH2 0x14F7 SWAP1 PUSH2 0x2D7B JUMP JUMPDEST DUP1 ISZERO PUSH2 0x1544 JUMPI DUP1 PUSH1 0x1F LT PUSH2 0x1519 JUMPI PUSH2 0x100 DUP1 DUP4 SLOAD DIV MUL DUP4 MSTORE SWAP2 PUSH1 0x20 ADD SWAP2 PUSH2 0x1544 JUMP JUMPDEST DUP3 ADD SWAP2 SWAP1 PUSH1 0x0 MSTORE PUSH1 0x20 PUSH1 0x0 KECCAK256 SWAP1 JUMPDEST DUP2 SLOAD DUP2 MSTORE SWAP1 PUSH1 0x1 ADD SWAP1 PUSH1 0x20 ADD DUP1 DUP4 GT PUSH2 0x1527 JUMPI DUP3 SWAP1 SUB PUSH1 0x1F AND DUP3 ADD SWAP2 JUMPDEST POP POP POP POP POP SWAP1 POP PUSH1 0x0 PUSH2 0x1555 PUSH2 0x195D JUMP JUMPDEST SWAP1 POP PUSH1 0x0 DUP2 MLOAD EQ ISZERO PUSH2 0x156B JUMPI DUP2 SWAP3 POP POP POP PUSH2 0x15AE JUMP JUMPDEST PUSH1 0x0 DUP3 MLOAD GT ISZERO PUSH2 0x15A0 JUMPI DUP1 DUP3 PUSH1 0x40 MLOAD PUSH1 0x20 ADD PUSH2 0x1588 SWAP3 SWAP2 SWAP1 PUSH2 0x35A2 JUMP JUMPDEST PUSH1 0x40 MLOAD PUSH1 0x20 DUP2 DUP4 SUB SUB DUP2 MSTORE SWAP1 PUSH1 0x40 MSTORE SWAP3 POP POP POP PUSH2 0x15AE JUMP JUMPDEST PUSH2 0x15A9 DUP5 PUSH2 0x1974 JUMP JUMPDEST SWAP3 POP POP POP JUMPDEST SWAP2 SWAP1 POP JUMP JUMPDEST PUSH1 0x0 DUP2 PUSH1 0x0 ADD SLOAD SWAP1 POP SWAP2 SWAP1 POP JUMP JUMPDEST PUSH1 0x1 DUP2 PUSH1 0x0 ADD PUSH1 0x0 DUP3 DUP3 SLOAD ADD SWAP3 POP POP DUP2 SWAP1 SSTORE POP POP JUMP JUMPDEST PUSH2 0x15F1 DUP3 DUP3 PUSH1 0x40 MLOAD DUP1 PUSH1 0x20 ADD PUSH1 0x40 MSTORE DUP1 PUSH1 0x0 DUP2 MSTORE POP PUSH2 0x19DC JUMP JUMPDEST POP POP JUMP JUMPDEST PUSH2 0x15FE DUP3 PUSH2 0x171A JUMP JUMPDEST PUSH2 0x163D JUMPI PUSH1 0x40 MLOAD PUSH32 0x8C379A000000000000000000000000000000000000000000000000000000000 DUP2 MSTORE PUSH1 0x4 ADD PUSH2 0x1634 SWAP1 PUSH2 0x3638 JUMP JUMPDEST PUSH1 0x40 MLOAD DUP1 SWAP2 SUB SWAP1 REVERT JUMPDEST DUP1 PUSH1 0xA PUSH1 0x0 DUP5 DUP2 MSTORE PUSH1 0x20 ADD SWAP1 DUP2 MSTORE PUSH1 0x20 ADD PUSH1 0x0 KECCAK256 SWAP1 DUP1 MLOAD SWAP1 PUSH1 0x20 ADD SWAP1 PUSH2 0x1664 SWAP3 SWAP2 SWAP1 PUSH2 0x25A9 JUMP JUMPDEST POP PUSH32 0xF8E1A15ABA9398E019F0B49DF1A4FDE98EE17AE345CB5F6B5E2C27F5033E8CE7 DUP3 PUSH1 0x40 MLOAD PUSH2 0x1694 SWAP2 SWAP1 PUSH2 0x2950 JUMP JUMPDEST PUSH1 0x40 MLOAD DUP1 SWAP2 SUB SWAP1 LOG1 POP POP JUMP JUMPDEST PUSH1 0x0 PUSH32 0x780E9D6300000000000000000000000000000000000000000000000000000000 PUSH28 0xFFFFFFFFFFFFFFFFFFFFFFFFFFFFFFFFFFFFFFFFFFFFFFFFFFFFFFFF NOT AND DUP3 PUSH28 0xFFFFFFFFFFFFFFFFFFFFFFFFFFFFFFFFFFFFFFFFFFFFFFFFFFFFFFFF NOT AND EQ DUP1 PUSH2 0x1713 JUMPI POP PUSH2 0x1712 DUP3 PUSH2 0x1A37 JUMP JUMPDEST JUMPDEST SWAP1 POP SWAP2 SWAP1 POP JUMP JUMPDEST PUSH1 0x0 DUP1 PUSH20 0xFFFFFFFFFFFFFFFFFFFFFFFFFFFFFFFFFFFFFFFF AND PUSH2 0x173C DUP4 PUSH2 0x1156 JUMP JUMPDEST PUSH20 0xFFFFFFFFFFFFFFFFFFFFFFFFFFFFFFFFFFFFFFFF AND EQ ISZERO SWAP1 POP SWAP2 SWAP1 POP JUMP JUMPDEST PUSH2 0x1767 DUP5 DUP5 DUP5 DUP5 PUSH2 0x1B19 JUMP JUMPDEST POP POP POP POP JUMP JUMPDEST POP POP POP POP JUMP JUMPDEST PUSH2 0x177C DUP2 PUSH2 0x1C79 JUMP JUMPDEST PUSH1 0x0 PUSH1 0xA PUSH1 0x0 DUP4 DUP2 MSTORE PUSH1 0x20 ADD SWAP1 DUP2 MSTORE PUSH1 0x20 ADD PUSH1 0x0 KECCAK256 DUP1 SLOAD PUSH2 0x179C SWAP1 PUSH2 0x2D7B JUMP JUMPDEST SWAP1 POP EQ PUSH2 0x17C3 JUMPI PUSH1 0xA PUSH1 0x0 DUP3 DUP2 MSTORE PUSH1 0x20 ADD SWAP1 DUP2 MSTORE PUSH1 0x20 ADD PUSH1 0x0 KECCAK256 PUSH1 0x0 PUSH2 0x17C2 SWAP2 SWAP1 PUSH2 0x262F JUMP JUMPDEST JUMPDEST POP JUMP JUMPDEST PUSH1 0x0 PUSH2 0x17E7 DUP5 PUSH20 0xFFFFFFFFFFFFFFFFFFFFFFFFFFFFFFFFFFFFFFFF AND PUSH2 0x1DC7 JUMP JUMPDEST ISZERO PUSH2 0x1950 JUMPI DUP4 PUSH20 0xFFFFFFFFFFFFFFFFFFFFFFFFFFFFFFFFFFFFFFFF AND PUSH4 0x150B7A02 PUSH2 0x1810 PUSH2 0xCFA JUMP JUMPDEST DUP8 DUP7 DUP7 PUSH1 0x40 MLOAD DUP6 PUSH4 0xFFFFFFFF AND PUSH1 0xE0 SHL DUP2 MSTORE PUSH1 0x4 ADD PUSH2 0x1832 SWAP5 SWAP4 SWAP3 SWAP2 SWAP1 PUSH2 0x36AD JUMP JUMPDEST PUSH1 0x20 PUSH1 0x40 MLOAD DUP1 DUP4 SUB DUP2 PUSH1 0x0 DUP8 DUP1 EXTCODESIZE ISZERO DUP1 ISZERO PUSH2 0x184C JUMPI PUSH1 0x0 DUP1 REVERT JUMPDEST POP GAS CALL SWAP3 POP POP POP DUP1 ISZERO PUSH2 0x187D JUMPI POP PUSH1 0x40 MLOAD RETURNDATASIZE PUSH1 0x1F NOT PUSH1 0x1F DUP3 ADD AND DUP3 ADD DUP1 PUSH1 0x40 MSTORE POP DUP2 ADD SWAP1 PUSH2 0x187A SWAP2 SWAP1 PUSH2 0x370E JUMP JUMPDEST PUSH1 0x1 JUMPDEST PUSH2 0x1900 JUMPI RETURNDATASIZE DUP1 PUSH1 0x0 DUP2 EQ PUSH2 0x18AD JUMPI PUSH1 0x40 MLOAD SWAP2 POP PUSH1 0x1F NOT PUSH1 0x3F RETURNDATASIZE ADD AND DUP3 ADD PUSH1 0x40 MSTORE RETURNDATASIZE DUP3 MSTORE RETURNDATASIZE PUSH1 0x0 PUSH1 0x20 DUP5 ADD RETURNDATACOPY PUSH2 0x18B2 JUMP JUMPDEST PUSH1 0x60 SWAP2 POP JUMPDEST POP PUSH1 0x0 DUP2 MLOAD EQ ISZERO PUSH2 0x18F8 JUMPI PUSH1 0x40 MLOAD PUSH32 0x8C379A000000000000000000000000000000000000000000000000000000000 DUP2 MSTORE PUSH1 0x4 ADD PUSH2 0x18EF SWAP1 PUSH2 0x3546 JUMP JUMPDEST PUSH1 0x40 MLOAD DUP1 SWAP2 SUB SWAP1 REVERT JUMPDEST DUP1 MLOAD DUP2 PUSH1 0x20 ADD REVERT JUMPDEST PUSH4 0x150B7A02 PUSH1 0xE0 SHL PUSH28 0xFFFFFFFFFFFFFFFFFFFFFFFFFFFFFFFFFFFFFFFFFFFFFFFFFFFFFFFF NOT AND DUP2 PUSH28 0xFFFFFFFFFFFFFFFFFFFFFFFFFFFFFFFFFFFFFFFFFFFFFFFFFFFFFFFF NOT AND EQ SWAP2 POP POP PUSH2 0x1955 JUMP JUMPDEST PUSH1 0x1 SWAP1 POP JUMPDEST SWAP5 SWAP4 POP POP POP POP JUMP JUMPDEST PUSH1 0x60 PUSH1 0x40 MLOAD DUP1 PUSH1 0x20 ADD PUSH1 0x40 MSTORE DUP1 PUSH1 0x0 DUP2 MSTORE POP SWAP1 POP SWAP1 JUMP JUMPDEST PUSH1 0x60 PUSH2 0x197F DUP3 PUSH2 0xCAF JUMP JUMPDEST PUSH1 0x0 PUSH2 0x1989 PUSH2 0x195D JUMP JUMPDEST SWAP1 POP PUSH1 0x0 DUP2 MLOAD GT PUSH2 0x19A9 JUMPI PUSH1 0x40 MLOAD DUP1 PUSH1 0x20 ADD PUSH1 0x40 MSTORE DUP1 PUSH1 0x0 DUP2 MSTORE POP PUSH2 0x19D4 JUMP JUMPDEST DUP1 PUSH2 0x19B3 DUP5 PUSH2 0x1DEA JUMP JUMPDEST PUSH1 0x40 MLOAD PUSH1 0x20 ADD PUSH2 0x19C4 SWAP3 SWAP2 SWAP1 PUSH2 0x35A2 JUMP JUMPDEST PUSH1 0x40 MLOAD PUSH1 0x20 DUP2 DUP4 SUB SUB DUP2 MSTORE SWAP1 PUSH1 0x40 MSTORE JUMPDEST SWAP2 POP POP SWAP2 SWAP1 POP JUMP JUMPDEST PUSH2 0x19E6 DUP4 DUP4 PUSH2 0x1EC2 JUMP JUMPDEST PUSH2 0x19F3 PUSH1 0x0 DUP5 DUP5 DUP5 PUSH2 0x17C6 JUMP JUMPDEST PUSH2 0x1A32 JUMPI PUSH1 0x40 MLOAD PUSH32 0x8C379A000000000000000000000000000000000000000000000000000000000 DUP2 MSTORE PUSH1 0x4 ADD PUSH2 0x1A29 SWAP1 PUSH2 0x3546 JUMP JUMPDEST PUSH1 0x40 MLOAD DUP1 SWAP2 SUB SWAP1 REVERT JUMPDEST POP POP POP JUMP JUMPDEST PUSH1 0x0 PUSH32 0x80AC58CD00000000000000000000000000000000000000000000000000000000 PUSH28 0xFFFFFFFFFFFFFFFFFFFFFFFFFFFFFFFFFFFFFFFFFFFFFFFFFFFFFFFF NOT AND DUP3 PUSH28 0xFFFFFFFFFFFFFFFFFFFFFFFFFFFFFFFFFFFFFFFFFFFFFFFFFFFFFFFF NOT AND EQ DUP1 PUSH2 0x1B02 JUMPI POP PUSH32 0x5B5E139F00000000000000000000000000000000000000000000000000000000 PUSH28 0xFFFFFFFFFFFFFFFFFFFFFFFFFFFFFFFFFFFFFFFFFFFFFFFFFFFFFFFF NOT AND DUP3 PUSH28 0xFFFFFFFFFFFFFFFFFFFFFFFFFFFFFFFFFFFFFFFFFFFFFFFFFFFFFFFF NOT AND EQ JUMPDEST DUP1 PUSH2 0x1B12 JUMPI POP PUSH2 0x1B11 DUP3 PUSH2 0x20E0 JUMP JUMPDEST JUMPDEST SWAP1 POP SWAP2 SWAP1 POP JUMP JUMPDEST PUSH2 0x1B25 DUP5 DUP5 DUP5 DUP5 PUSH2 0x214A JUMP JUMPDEST PUSH1 0x1 DUP2 GT ISZERO PUSH2 0x1B69 JUMPI PUSH1 0x40 MLOAD PUSH32 0x8C379A000000000000000000000000000000000000000000000000000000000 DUP2 MSTORE PUSH1 0x4 ADD PUSH2 0x1B60 SWAP1 PUSH2 0x37AD JUMP JUMPDEST PUSH1 0x40 MLOAD DUP1 SWAP2 SUB SWAP1 REVERT JUMPDEST PUSH1 0x0 DUP3 SWAP1 POP PUSH1 0x0 PUSH20 0xFFFFFFFFFFFFFFFFFFFFFFFFFFFFFFFFFFFFFFFF AND DUP6 PUSH20 0xFFFFFFFFFFFFFFFFFFFFFFFFFFFFFFFFFFFFFFFF AND EQ ISZERO PUSH2 0x1BB1 JUMPI PUSH2 0x1BAC DUP2 PUSH2 0x2150 JUMP JUMPDEST PUSH2 0x1BF0 JUMP JUMPDEST DUP4 PUSH20 0xFFFFFFFFFFFFFFFFFFFFFFFFFFFFFFFFFFFFFFFF AND DUP6 PUSH20 0xFFFFFFFFFFFFFFFFFFFFFFFFFFFFFFFFFFFFFFFF AND EQ PUSH2 0x1BEF JUMPI PUSH2 0x1BEE DUP6 DUP3 PUSH2 0x2199 JUMP JUMPDEST JUMPDEST JUMPDEST PUSH1 0x0 PUSH20 0xFFFFFFFFFFFFFFFFFFFFFFFFFFFFFFFFFFFFFFFF AND DUP5 PUSH20 0xFFFFFFFFFFFFFFFFFFFFFFFFFFFFFFFFFFFFFFFF AND EQ ISZERO PUSH2 0x1C33 JUMPI PUSH2 0x1C2E DUP2 PUSH2 0x2306 JUMP JUMPDEST PUSH2 0x1C72 JUMP JUMPDEST DUP5 PUSH20 0xFFFFFFFFFFFFFFFFFFFFFFFFFFFFFFFFFFFFFFFF AND DUP5 PUSH20 0xFFFFFFFFFFFFFFFFFFFFFFFFFFFFFFFFFFFFFFFF AND EQ PUSH2 0x1C71 JUMPI PUSH2 0x1C70 DUP5 DUP3 PUSH2 0x23D7 JUMP JUMPDEST JUMPDEST JUMPDEST POP POP POP POP POP JUMP JUMPDEST PUSH1 0x0 PUSH2 0x1C84 DUP3 PUSH2 0x81F JUMP JUMPDEST SWAP1 POP PUSH2 0x1C94 DUP2 PUSH1 0x0 DUP5 PUSH1 0x1 PUSH2 0x175B JUMP JUMPDEST PUSH2 0x1C9D DUP3 PUSH2 0x81F JUMP JUMPDEST SWAP1 POP PUSH1 0x4 PUSH1 0x0 DUP4 DUP2 MSTORE PUSH1 0x20 ADD SWAP1 DUP2 MSTORE PUSH1 0x20 ADD PUSH1 0x0 KECCAK256 PUSH1 0x0 PUSH2 0x100 EXP DUP2 SLOAD SWAP1 PUSH20 0xFFFFFFFFFFFFFFFFFFFFFFFFFFFFFFFFFFFFFFFF MUL NOT AND SWAP1 SSTORE PUSH1 0x1 PUSH1 0x3 PUSH1 0x0 DUP4 PUSH20 0xFFFFFFFFFFFFFFFFFFFFFFFFFFFFFFFFFFFFFFFF AND PUSH20 0xFFFFFFFFFFFFFFFFFFFFFFFFFFFFFFFFFFFFFFFF AND DUP2 MSTORE PUSH1 0x20 ADD SWAP1 DUP2 MSTORE PUSH1 0x20 ADD PUSH1 0x0 KECCAK256 PUSH1 0x0 DUP3 DUP3 SLOAD SUB SWAP3 POP POP DUP2 SWAP1 SSTORE POP PUSH1 0x2 PUSH1 0x0 DUP4 DUP2 MSTORE PUSH1 0x20 ADD SWAP1 DUP2 MSTORE PUSH1 0x20 ADD PUSH1 0x0 KECCAK256 PUSH1 0x0 PUSH2 0x100 EXP DUP2 SLOAD SWAP1 PUSH20 0xFFFFFFFFFFFFFFFFFFFFFFFFFFFFFFFFFFFFFFFF MUL NOT AND SWAP1 SSTORE DUP2 PUSH1 0x0 PUSH20 0xFFFFFFFFFFFFFFFFFFFFFFFFFFFFFFFFFFFFFFFF AND DUP3 PUSH20 0xFFFFFFFFFFFFFFFFFFFFFFFFFFFFFFFFFFFFFFFF AND PUSH32 0xDDF252AD1BE2C89B69C2B068FC378DAA952BA7F163C4A11628F55A4DF523B3EF PUSH1 0x40 MLOAD PUSH1 0x40 MLOAD DUP1 SWAP2 SUB SWAP1 LOG4 PUSH2 0x1DC3 DUP2 PUSH1 0x0 DUP5 PUSH1 0x1 PUSH2 0x176D JUMP JUMPDEST POP POP JUMP JUMPDEST PUSH1 0x0 DUP1 DUP3 PUSH20 0xFFFFFFFFFFFFFFFFFFFFFFFFFFFFFFFFFFFFFFFF AND EXTCODESIZE GT SWAP1 POP SWAP2 SWAP1 POP JUMP JUMPDEST PUSH1 0x60 PUSH1 0x0 PUSH1 0x1 PUSH2 0x1DF9 DUP5 PUSH2 0x2456 JUMP JUMPDEST ADD SWAP1 POP PUSH1 0x0 DUP2 PUSH8 0xFFFFFFFFFFFFFFFF DUP2 GT ISZERO PUSH2 0x1E18 JUMPI PUSH2 0x1E17 PUSH2 0x2A61 JUMP JUMPDEST JUMPDEST PUSH1 0x40 MLOAD SWAP1 DUP1 DUP3 MSTORE DUP1 PUSH1 0x1F ADD PUSH1 0x1F NOT AND PUSH1 0x20 ADD DUP3 ADD PUSH1 0x40 MSTORE DUP1 ISZERO PUSH2 0x1E4A JUMPI DUP2 PUSH1 0x20 ADD PUSH1 0x1 DUP3 MUL DUP1 CALLDATASIZE DUP4 CALLDATACOPY DUP1 DUP3 ADD SWAP2 POP POP SWAP1 POP JUMPDEST POP SWAP1 POP PUSH1 0x0 DUP3 PUSH1 0x20 ADD DUP3 ADD SWAP1 POP JUMPDEST PUSH1 0x1 ISZERO PUSH2 0x1EB7 JUMPI DUP1 DUP1 PUSH1 0x1 SWAP1 SUB SWAP2 POP POP PUSH32 0x3031323334353637383961626364656600000000000000000000000000000000 PUSH1 0xA DUP7 MOD BYTE DUP2 MSTORE8 PUSH1 0xA DUP6 DUP2 PUSH2 0x1EA1 JUMPI PUSH2 0x1EA0 PUSH2 0x37CD JUMP JUMPDEST JUMPDEST DIV SWAP5 POP PUSH1 0x0 DUP6 EQ ISZERO PUSH2 0x1EB2 JUMPI PUSH2 0x1EB7 JUMP JUMPDEST PUSH2 0x1E58 JUMP JUMPDEST DUP2 SWAP4 POP POP POP POP SWAP2 SWAP1 POP JUMP JUMPDEST PUSH1 0x0 PUSH20 0xFFFFFFFFFFFFFFFFFFFFFFFFFFFFFFFFFFFFFFFF AND DUP3 PUSH20 0xFFFFFFFFFFFFFFFFFFFFFFFFFFFFFFFFFFFFFFFF AND EQ ISZERO PUSH2 0x1F32 JUMPI PUSH1 0x40 MLOAD PUSH32 0x8C379A000000000000000000000000000000000000000000000000000000000 DUP2 MSTORE PUSH1 0x4 ADD PUSH2 0x1F29 SWAP1 PUSH2 0x3848 JUMP JUMPDEST PUSH1 0x40 MLOAD DUP1 SWAP2 SUB SWAP1 REVERT JUMPDEST PUSH2 0x1F3B DUP2 PUSH2 0x171A JUMP JUMPDEST ISZERO PUSH2 0x1F7B JUMPI PUSH1 0x40 MLOAD PUSH32 0x8C379A000000000000000000000000000000000000000000000000000000000 DUP2 MSTORE PUSH1 0x4 ADD PUSH2 0x1F72 SWAP1 PUSH2 0x38B4 JUMP JUMPDEST PUSH1 0x40 MLOAD DUP1 SWAP2 SUB SWAP1 REVERT JUMPDEST PUSH2 0x1F89 PUSH1 0x0 DUP4 DUP4 PUSH1 0x1 PUSH2 0x175B JUMP JUMPDEST PUSH2 0x1F92 DUP2 PUSH2 0x171A JUMP JUMPDEST ISZERO PUSH2 0x1FD2 JUMPI PUSH1 0x40 MLOAD PUSH32 0x8C379A000000000000000000000000000000000000000000000000000000000 DUP2 MSTORE PUSH1 0x4 ADD PUSH2 0x1FC9 SWAP1 PUSH2 0x38B4 JUMP JUMPDEST PUSH1 0x40 MLOAD DUP1 SWAP2 SUB SWAP1 REVERT JUMPDEST PUSH1 0x1 PUSH1 0x3 PUSH1 0x0 DUP5 PUSH20 0xFFFFFFFFFFFFFFFFFFFFFFFFFFFFFFFFFFFFFFFF AND PUSH20 0xFFFFFFFFFFFFFFFFFFFFFFFFFFFFFFFFFFFFFFFF AND DUP2 MSTORE PUSH1 0x20 ADD SWAP1 DUP2 MSTORE PUSH1 0x20 ADD PUSH1 0x0 KECCAK256 PUSH1 0x0 DUP3 DUP3 SLOAD ADD SWAP3 POP POP DUP2 SWAP1 SSTORE POP DUP2 PUSH1 0x2 PUSH1 0x0 DUP4 DUP2 MSTORE PUSH1 0x20 ADD SWAP1 DUP2 MSTORE PUSH1 0x20 ADD PUSH1 0x0 KECCAK256 PUSH1 0x0 PUSH2 0x100 EXP DUP2 SLOAD DUP2 PUSH20 0xFFFFFFFFFFFFFFFFFFFFFFFFFFFFFFFFFFFFFFFF MUL NOT AND SWAP1 DUP4 PUSH20 0xFFFFFFFFFFFFFFFFFFFFFFFFFFFFFFFFFFFFFFFF AND MUL OR SWAP1 SSTORE POP DUP1 DUP3 PUSH20 0xFFFFFFFFFFFFFFFFFFFFFFFFFFFFFFFFFFFFFFFF AND PUSH1 0x0 PUSH20 0xFFFFFFFFFFFFFFFFFFFFFFFFFFFFFFFFFFFFFFFF AND PUSH32 0xDDF252AD1BE2C89B69C2B068FC378DAA952BA7F163C4A11628F55A4DF523B3EF PUSH1 0x40 MLOAD PUSH1 0x40 MLOAD DUP1 SWAP2 SUB SWAP1 LOG4 PUSH2 0x20DC PUSH1 0x0 DUP4 DUP4 PUSH1 0x1 PUSH2 0x176D JUMP JUMPDEST POP POP JUMP JUMPDEST PUSH1 0x0 PUSH32 0x1FFC9A700000000000000000000000000000000000000000000000000000000 PUSH28 0xFFFFFFFFFFFFFFFFFFFFFFFFFFFFFFFFFFFFFFFFFFFFFFFFFFFFFFFF NOT AND DUP3 PUSH28 0xFFFFFFFFFFFFFFFFFFFFFFFFFFFFFFFFFFFFFFFFFFFFFFFFFFFFFFFF NOT AND EQ SWAP1 POP SWAP2 SWAP1 POP JUMP JUMPDEST POP POP POP POP JUMP JUMPDEST PUSH1 0x8 DUP1 SLOAD SWAP1 POP PUSH1 0x9 PUSH1 0x0 DUP4 DUP2 MSTORE PUSH1 0x20 ADD SWAP1 DUP2 MSTORE PUSH1 0x20 ADD PUSH1 0x0 KECCAK256 DUP2 SWAP1 SSTORE POP PUSH1 0x8 DUP2 SWAP1 DUP1 PUSH1 0x1 DUP2 SLOAD ADD DUP1 DUP3 SSTORE DUP1 SWAP2 POP POP PUSH1 0x1 SWAP1 SUB SWAP1 PUSH1 0x0 MSTORE PUSH1 0x20 PUSH1 0x0 KECCAK256 ADD PUSH1 0x0 SWAP1 SWAP2 SWAP1 SWAP2 SWAP1 SWAP2 POP SSTORE POP JUMP JUMPDEST PUSH1 0x0 PUSH1 0x1 PUSH2 0x21A6 DUP5 PUSH2 0x8A6 JUMP JUMPDEST PUSH2 0x21B0 SWAP2 SWAP1 PUSH2 0x3903 JUMP JUMPDEST SWAP1 POP PUSH1 0x0 PUSH1 0x7 PUSH1 0x0 DUP5 DUP2 MSTORE PUSH1 0x20 ADD SWAP1 DUP2 MSTORE PUSH1 0x20 ADD PUSH1 0x0 KECCAK256 SLOAD SWAP1 POP DUP2 DUP2 EQ PUSH2 0x2295 JUMPI PUSH1 0x0 PUSH1 0x6 PUSH1 0x0 DUP7 PUSH20 0xFFFFFFFFFFFFFFFFFFFFFFFFFFFFFFFFFFFFFFFF AND PUSH20 0xFFFFFFFFFFFFFFFFFFFFFFFFFFFFFFFFFFFFFFFF AND DUP2 MSTORE PUSH1 0x20 ADD SWAP1 DUP2 MSTORE PUSH1 0x20 ADD PUSH1 0x0 KECCAK256 PUSH1 0x0 DUP5 DUP2 MSTORE PUSH1 0x20 ADD SWAP1 DUP2 MSTORE PUSH1 0x20 ADD PUSH1 0x0 KECCAK256 SLOAD SWAP1 POP DUP1 PUSH1 0x6 PUSH1 0x0 DUP8 PUSH20 0xFFFFFFFFFFFFFFFFFFFFFFFFFFFFFFFFFFFFFFFF AND PUSH20 0xFFFFFFFFFFFFFFFFFFFFFFFFFFFFFFFFFFFFFFFF AND DUP2 MSTORE PUSH1 0x20 ADD SWAP1 DUP2 MSTORE PUSH1 0x20 ADD PUSH1 0x0 KECCAK256 PUSH1 0x0 DUP5 DUP2 MSTORE PUSH1 0x20 ADD SWAP1 DUP2 MSTORE PUSH1 0x20 ADD PUSH1 0x0 KECCAK256 DUP2 SWAP1 SSTORE POP DUP2 PUSH1 0x7 PUSH1 0x0 DUP4 DUP2 MSTORE PUSH1 0x20 ADD SWAP1 DUP2 MSTORE PUSH1 0x20 ADD PUSH1 0x0 KECCAK256 DUP2 SWAP1 SSTORE POP POP JUMPDEST PUSH1 0x7 PUSH1 0x0 DUP5 DUP2 MSTORE PUSH1 0x20 ADD SWAP1 DUP2 MSTORE PUSH1 0x20 ADD PUSH1 0x0 KECCAK256 PUSH1 0x0 SWAP1 SSTORE PUSH1 0x6 PUSH1 0x0 DUP6 PUSH20 0xFFFFFFFFFFFFFFFFFFFFFFFFFFFFFFFFFFFFFFFF AND PUSH20 0xFFFFFFFFFFFFFFFFFFFFFFFFFFFFFFFFFFFFFFFF AND DUP2 MSTORE PUSH1 0x20 ADD SWAP1 DUP2 MSTORE PUSH1 0x20 ADD PUSH1 0x0 KECCAK256 PUSH1 0x0 DUP4 DUP2 MSTORE PUSH1 0x20 ADD SWAP1 DUP2 MSTORE PUSH1 0x20 ADD PUSH1 0x0 KECCAK256 PUSH1 0x0 SWAP1 SSTORE POP POP POP POP JUMP JUMPDEST PUSH1 0x0 PUSH1 0x1 PUSH1 0x8 DUP1 SLOAD SWAP1 POP PUSH2 0x231A SWAP2 SWAP1 PUSH2 0x3903 JUMP JUMPDEST SWAP1 POP PUSH1 0x0 PUSH1 0x9 PUSH1 0x0 DUP5 DUP2 MSTORE PUSH1 0x20 ADD SWAP1 DUP2 MSTORE PUSH1 0x20 ADD PUSH1 0x0 KECCAK256 SLOAD SWAP1 POP PUSH1 0x0 PUSH1 0x8 DUP4 DUP2 SLOAD DUP2 LT PUSH2 0x234A JUMPI PUSH2 0x2349 PUSH2 0x3087 JUMP JUMPDEST JUMPDEST SWAP1 PUSH1 0x0 MSTORE PUSH1 0x20 PUSH1 0x0 KECCAK256 ADD SLOAD SWAP1 POP DUP1 PUSH1 0x8 DUP4 DUP2 SLOAD DUP2 LT PUSH2 0x236C JUMPI PUSH2 0x236B PUSH2 0x3087 JUMP JUMPDEST JUMPDEST SWAP1 PUSH1 0x0 MSTORE PUSH1 0x20 PUSH1 0x0 KECCAK256 ADD DUP2 SWAP1 SSTORE POP DUP2 PUSH1 0x9 PUSH1 0x0 DUP4 DUP2 MSTORE PUSH1 0x20 ADD SWAP1 DUP2 MSTORE PUSH1 0x20 ADD PUSH1 0x0 KECCAK256 DUP2 SWAP1 SSTORE POP PUSH1 0x9 PUSH1 0x0 DUP6 DUP2 MSTORE PUSH1 0x20 ADD SWAP1 DUP2 MSTORE PUSH1 0x20 ADD PUSH1 0x0 KECCAK256 PUSH1 0x0 SWAP1 SSTORE PUSH1 0x8 DUP1 SLOAD DUP1 PUSH2 0x23BB JUMPI PUSH2 0x23BA PUSH2 0x3937 JUMP JUMPDEST JUMPDEST PUSH1 0x1 SWAP1 SUB DUP2 DUP2 SWAP1 PUSH1 0x0 MSTORE PUSH1 0x20 PUSH1 0x0 KECCAK256 ADD PUSH1 0x0 SWAP1 SSTORE SWAP1 SSTORE POP POP POP POP JUMP JUMPDEST PUSH1 0x0 PUSH2 0x23E2 DUP4 PUSH2 0x8A6 JUMP JUMPDEST SWAP1 POP DUP2 PUSH1 0x6 PUSH1 0x0 DUP6 PUSH20 0xFFFFFFFFFFFFFFFFFFFFFFFFFFFFFFFFFFFFFFFF AND PUSH20 0xFFFFFFFFFFFFFFFFFFFFFFFFFFFFFFFFFFFFFFFF AND DUP2 MSTORE PUSH1 0x20 ADD SWAP1 DUP2 MSTORE PUSH1 0x20 ADD PUSH1 0x0 KECCAK256 PUSH1 0x0 DUP4 DUP2 MSTORE PUSH1 0x20 ADD SWAP1 DUP2 MSTORE PUSH1 0x20 ADD PUSH1 0x0 KECCAK256 DUP2 SWAP1 SSTORE POP DUP1 PUSH1 0x7 PUSH1 0x0 DUP5 DUP2 MSTORE PUSH1 0x20 ADD SWAP1 DUP2 MSTORE PUSH1 0x20 ADD PUSH1 0x0 KECCAK256 DUP2 SWAP1 SSTORE POP POP POP POP JUMP JUMPDEST PUSH1 0x0 DUP1 PUSH1 0x0 SWAP1 POP PUSH27 0x184F03E93FF9F4DAA797ED6E38ED64BF6A1F010000000000000000 DUP4 LT PUSH2 0x24B4 JUMPI PUSH27 0x184F03E93FF9F4DAA797ED6E38ED64BF6A1F010000000000000000 DUP4 DUP2 PUSH2 0x24AA JUMPI PUSH2 0x24A9 PUSH2 0x37CD JUMP JUMPDEST JUMPDEST DIV SWAP3 POP PUSH1 0x40 DUP2 ADD SWAP1 POP JUMPDEST PUSH14 0x4EE2D6D415B85ACEF8100000000 DUP4 LT PUSH2 0x24F1 JUMPI PUSH14 0x4EE2D6D415B85ACEF8100000000 DUP4 DUP2 PUSH2 0x24E7 JUMPI PUSH2 0x24E6 PUSH2 0x37CD JUMP JUMPDEST JUMPDEST DIV SWAP3 POP PUSH1 0x20 DUP2 ADD SWAP1 POP JUMPDEST PUSH7 0x2386F26FC10000 DUP4 LT PUSH2 0x2520 JUMPI PUSH7 0x2386F26FC10000 DUP4 DUP2 PUSH2 0x2516 JUMPI PUSH2 0x2515 PUSH2 0x37CD JUMP JUMPDEST JUMPDEST DIV SWAP3 POP PUSH1 0x10 DUP2 ADD SWAP1 POP JUMPDEST PUSH4 0x5F5E100 DUP4 LT PUSH2 0x2549 JUMPI PUSH4 0x5F5E100 DUP4 DUP2 PUSH2 0x253F JUMPI PUSH2 0x253E PUSH2 0x37CD JUMP JUMPDEST JUMPDEST DIV SWAP3 POP PUSH1 0x8 DUP2 ADD SWAP1 POP JUMPDEST PUSH2 0x2710 DUP4 LT PUSH2 0x256E JUMPI PUSH2 0x2710 DUP4 DUP2 PUSH2 0x2564 JUMPI PUSH2 0x2563 PUSH2 0x37CD JUMP JUMPDEST JUMPDEST DIV SWAP3 POP PUSH1 0x4 DUP2 ADD SWAP1 POP JUMPDEST PUSH1 0x64 DUP4 LT PUSH2 0x2591 JUMPI PUSH1 0x64 DUP4 DUP2 PUSH2 0x2587 JUMPI PUSH2 0x2586 PUSH2 0x37CD JUMP JUMPDEST JUMPDEST DIV SWAP3 POP PUSH1 0x2 DUP2 ADD SWAP1 POP JUMPDEST PUSH1 0xA DUP4 LT PUSH2 0x25A0 JUMPI PUSH1 0x1 DUP2 ADD SWAP1 POP JUMPDEST DUP1 SWAP2 POP POP SWAP2 SWAP1 POP JUMP JUMPDEST DUP3 DUP1 SLOAD PUSH2 0x25B5 SWAP1 PUSH2 0x2D7B JUMP JUMPDEST SWAP1 PUSH1 0x0 MSTORE PUSH1 0x20 PUSH1 0x0 KECCAK256 SWAP1 PUSH1 0x1F ADD PUSH1 0x20 SWAP1 DIV DUP2 ADD SWAP3 DUP3 PUSH2 0x25D7 JUMPI PUSH1 0x0 DUP6 SSTORE PUSH2 0x261E JUMP JUMPDEST DUP3 PUSH1 0x1F LT PUSH2 0x25F0 JUMPI DUP1 MLOAD PUSH1 0xFF NOT AND DUP4 DUP1 ADD OR DUP6 SSTORE PUSH2 0x261E JUMP JUMPDEST DUP3 DUP1 ADD PUSH1 0x1 ADD DUP6 SSTORE DUP3 ISZERO PUSH2 0x261E JUMPI SWAP2 DUP3 ADD JUMPDEST DUP3 DUP2 GT ISZERO PUSH2 0x261D JUMPI DUP3 MLOAD DUP3 SSTORE SWAP2 PUSH1 0x20 ADD SWAP2 SWAP1 PUSH1 0x1 ADD SWAP1 PUSH2 0x2602 JUMP JUMPDEST JUMPDEST POP SWAP1 POP PUSH2 0x262B SWAP2 SWAP1 PUSH2 0x266F JUMP JUMPDEST POP SWAP1 JUMP JUMPDEST POP DUP1 SLOAD PUSH2 0x263B SWAP1 PUSH2 0x2D7B JUMP JUMPDEST PUSH1 0x0 DUP3 SSTORE DUP1 PUSH1 0x1F LT PUSH2 0x264D JUMPI POP PUSH2 0x266C JUMP JUMPDEST PUSH1 0x1F ADD PUSH1 0x20 SWAP1 DIV SWAP1 PUSH1 0x0 MSTORE PUSH1 0x20 PUSH1 0x0 KECCAK256 SWAP1 DUP2 ADD SWAP1 PUSH2 0x266B SWAP2 SWAP1 PUSH2 0x266F JUMP JUMPDEST JUMPDEST POP JUMP JUMPDEST JUMPDEST DUP1 DUP3 GT ISZERO PUSH2 0x2688 JUMPI PUSH1 0x0 DUP2 PUSH1 0x0 SWAP1 SSTORE POP PUSH1 0x1 ADD PUSH2 0x2670 JUMP JUMPDEST POP SWAP1 JUMP JUMPDEST PUSH1 0x0 PUSH1 0x40 MLOAD SWAP1 POP SWAP1 JUMP JUMPDEST PUSH1 0x0 DUP1 REVERT JUMPDEST PUSH1 0x0 DUP1 REVERT JUMPDEST PUSH1 0x0 PUSH32 0xFFFFFFFF00000000000000000000000000000000000000000000000000000000 DUP3 AND SWAP1 POP SWAP2 SWAP1 POP JUMP JUMPDEST PUSH2 0x26D5 DUP2 PUSH2 0x26A0 JUMP JUMPDEST DUP2 EQ PUSH2 0x26E0 JUMPI PUSH1 0x0 DUP1 REVERT JUMPDEST POP JUMP JUMPDEST PUSH1 0x0 DUP2 CALLDATALOAD SWAP1 POP PUSH2 0x26F2 DUP2 PUSH2 0x26CC JUMP JUMPDEST SWAP3 SWAP2 POP POP JUMP JUMPDEST PUSH1 0x0 PUSH1 0x20 DUP3 DUP5 SUB SLT ISZERO PUSH2 0x270E JUMPI PUSH2 0x270D PUSH2 0x2696 JUMP JUMPDEST JUMPDEST PUSH1 0x0 PUSH2 0x271C DUP5 DUP3 DUP6 ADD PUSH2 0x26E3 JUMP JUMPDEST SWAP2 POP POP SWAP3 SWAP2 POP POP JUMP JUMPDEST PUSH1 0x0 DUP2 ISZERO ISZERO SWAP1 POP SWAP2 SWAP1 POP JUMP JUMPDEST PUSH2 0x273A DUP2 PUSH2 0x2725 JUMP JUMPDEST DUP3 MSTORE POP POP JUMP JUMPDEST PUSH1 0x0 PUSH1 0x20 DUP3 ADD SWAP1 POP PUSH2 0x2755 PUSH1 0x0 DUP4 ADD DUP5 PUSH2 0x2731 JUMP JUMPDEST SWAP3 SWAP2 POP POP JUMP JUMPDEST PUSH1 0x0 DUP2 MLOAD SWAP1 POP SWAP2 SWAP1 POP JUMP JUMPDEST PUSH1 0x0 DUP3 DUP3 MSTORE PUSH1 0x20 DUP3 ADD SWAP1 POP SWAP3 SWAP2 POP POP JUMP JUMPDEST PUSH1 0x0 JUMPDEST DUP4 DUP2 LT ISZERO PUSH2 0x2795 JUMPI DUP1 DUP3 ADD MLOAD DUP2 DUP5 ADD MSTORE PUSH1 0x20 DUP2 ADD SWAP1 POP PUSH2 0x277A JUMP JUMPDEST DUP4 DUP2 GT ISZERO PUSH2 0x27A4 JUMPI PUSH1 0x0 DUP5 DUP5 ADD MSTORE JUMPDEST POP POP POP POP JUMP JUMPDEST PUSH1 0x0 PUSH1 0x1F NOT PUSH1 0x1F DUP4 ADD AND SWAP1 POP SWAP2 SWAP1 POP JUMP JUMPDEST PUSH1 0x0 PUSH2 0x27C6 DUP3 PUSH2 0x275B JUMP JUMPDEST PUSH2 0x27D0 DUP2 DUP6 PUSH2 0x2766 JUMP JUMPDEST SWAP4 POP PUSH2 0x27E0 DUP2 DUP6 PUSH1 0x20 DUP7 ADD PUSH2 0x2777 JUMP JUMPDEST PUSH2 0x27E9 DUP2 PUSH2 0x27AA JUMP JUMPDEST DUP5 ADD SWAP2 POP POP SWAP3 SWAP2 POP POP JUMP JUMPDEST PUSH1 0x0 PUSH1 0x20 DUP3 ADD SWAP1 POP DUP2 DUP2 SUB PUSH1 0x0 DUP4 ADD MSTORE PUSH2 0x280E DUP2 DUP5 PUSH2 0x27BB JUMP JUMPDEST SWAP1 POP SWAP3 SWAP2 POP POP JUMP JUMPDEST PUSH1 0x0 DUP2 SWAP1 POP SWAP2 SWAP1 POP JUMP JUMPDEST PUSH2 0x2829 DUP2 PUSH2 0x2816 JUMP JUMPDEST DUP2 EQ PUSH2 0x2834 JUMPI PUSH1 0x0 DUP1 REVERT JUMPDEST POP JUMP JUMPDEST PUSH1 0x0 DUP2 CALLDATALOAD SWAP1 POP PUSH2 0x2846 DUP2 PUSH2 0x2820 JUMP JUMPDEST SWAP3 SWAP2 POP POP JUMP JUMPDEST PUSH1 0x0 PUSH1 0x20 DUP3 DUP5 SUB SLT ISZERO PUSH2 0x2862 JUMPI PUSH2 0x2861 PUSH2 0x2696 JUMP JUMPDEST JUMPDEST PUSH1 0x0 PUSH2 0x2870 DUP5 DUP3 DUP6 ADD PUSH2 0x2837 JUMP JUMPDEST SWAP2 POP POP SWAP3 SWAP2 POP POP JUMP JUMPDEST PUSH1 0x0 PUSH20 0xFFFFFFFFFFFFFFFFFFFFFFFFFFFFFFFFFFFFFFFF DUP3 AND SWAP1 POP SWAP2 SWAP1 POP JUMP JUMPDEST PUSH1 0x0 PUSH2 0x28A4 DUP3 PUSH2 0x2879 JUMP JUMPDEST SWAP1 POP SWAP2 SWAP1 POP JUMP JUMPDEST PUSH2 0x28B4 DUP2 PUSH2 0x2899 JUMP JUMPDEST DUP3 MSTORE POP POP JUMP JUMPDEST PUSH1 0x0 PUSH1 0x20 DUP3 ADD SWAP1 POP PUSH2 0x28CF PUSH1 0x0 DUP4 ADD DUP5 PUSH2 0x28AB JUMP JUMPDEST SWAP3 SWAP2 POP POP JUMP JUMPDEST PUSH2 0x28DE DUP2 PUSH2 0x2899 JUMP JUMPDEST DUP2 EQ PUSH2 0x28E9 JUMPI PUSH1 0x0 DUP1 REVERT JUMPDEST POP JUMP JUMPDEST PUSH1 0x0 DUP2 CALLDATALOAD SWAP1 POP PUSH2 0x28FB DUP2 PUSH2 0x28D5 JUMP JUMPDEST SWAP3 SWAP2 POP POP JUMP JUMPDEST PUSH1 0x0 DUP1 PUSH1 0x40 DUP4 DUP6 SUB SLT ISZERO PUSH2 0x2918 JUMPI PUSH2 0x2917 PUSH2 0x2696 JUMP JUMPDEST JUMPDEST PUSH1 0x0 PUSH2 0x2926 DUP6 DUP3 DUP7 ADD PUSH2 0x28EC JUMP JUMPDEST SWAP3 POP POP PUSH1 0x20 PUSH2 0x2937 DUP6 DUP3 DUP7 ADD PUSH2 0x2837 JUMP JUMPDEST SWAP2 POP POP SWAP3 POP SWAP3 SWAP1 POP JUMP JUMPDEST PUSH2 0x294A DUP2 PUSH2 0x2816 JUMP JUMPDEST DUP3 MSTORE POP POP JUMP JUMPDEST PUSH1 0x0 PUSH1 0x20 DUP3 ADD SWAP1 POP PUSH2 0x2965 PUSH1 0x0 DUP4 ADD DUP5 PUSH2 0x2941 JUMP JUMPDEST SWAP3 SWAP2 POP POP JUMP JUMPDEST PUSH1 0x0 DUP1 PUSH1 0x0 PUSH1 0x60 DUP5 DUP7 SUB SLT ISZERO PUSH2 0x2984 JUMPI PUSH2 0x2983 PUSH2 0x2696 JUMP JUMPDEST JUMPDEST PUSH1 0x0 PUSH2 0x2992 DUP7 DUP3 DUP8 ADD PUSH2 0x28EC JUMP JUMPDEST SWAP4 POP POP PUSH1 0x20 PUSH2 0x29A3 DUP7 DUP3 DUP8 ADD PUSH2 0x28EC JUMP JUMPDEST SWAP3 POP POP PUSH1 0x40 PUSH2 0x29B4 DUP7 DUP3 DUP8 ADD PUSH2 0x2837 JUMP JUMPDEST SWAP2 POP POP SWAP3 POP SWAP3 POP SWAP3 JUMP JUMPDEST PUSH1 0x0 PUSH1 0x20 DUP3 DUP5 SUB SLT ISZERO PUSH2 0x29D4 JUMPI PUSH2 0x29D3 PUSH2 0x2696 JUMP JUMPDEST JUMPDEST PUSH1 0x0 PUSH2 0x29E2 DUP5 DUP3 DUP6 ADD PUSH2 0x28EC JUMP JUMPDEST SWAP2 POP POP SWAP3 SWAP2 POP POP JUMP JUMPDEST PUSH2 0x29F4 DUP2 PUSH2 0x2725 JUMP JUMPDEST DUP2 EQ PUSH2 0x29FF JUMPI PUSH1 0x0 DUP1 REVERT JUMPDEST POP JUMP JUMPDEST PUSH1 0x0 DUP2 CALLDATALOAD SWAP1 POP PUSH2 0x2A11 DUP2 PUSH2 0x29EB JUMP JUMPDEST SWAP3 SWAP2 POP POP JUMP JUMPDEST PUSH1 0x0 DUP1 PUSH1 0x40 DUP4 DUP6 SUB SLT ISZERO PUSH2 0x2A2E JUMPI PUSH2 0x2A2D PUSH2 0x2696 JUMP JUMPDEST JUMPDEST PUSH1 0x0 PUSH2 0x2A3C DUP6 DUP3 DUP7 ADD PUSH2 0x28EC JUMP JUMPDEST SWAP3 POP POP PUSH1 0x20 PUSH2 0x2A4D DUP6 DUP3 DUP7 ADD PUSH2 0x2A02 JUMP JUMPDEST SWAP2 POP POP SWAP3 POP SWAP3 SWAP1 POP JUMP JUMPDEST PUSH1 0x0 DUP1 REVERT JUMPDEST PUSH1 0x0 DUP1 REVERT JUMPDEST PUSH32 0x4E487B7100000000000000000000000000000000000000000000000000000000 PUSH1 0x0 MSTORE PUSH1 0x41 PUSH1 0x4 MSTORE PUSH1 0x24 PUSH1 0x0 REVERT JUMPDEST PUSH2 0x2A99 DUP3 PUSH2 0x27AA JUMP JUMPDEST DUP2 ADD DUP2 DUP2 LT PUSH8 0xFFFFFFFFFFFFFFFF DUP3 GT OR ISZERO PUSH2 0x2AB8 JUMPI PUSH2 0x2AB7 PUSH2 0x2A61 JUMP JUMPDEST JUMPDEST DUP1 PUSH1 0x40 MSTORE POP POP POP JUMP JUMPDEST PUSH1 0x0 PUSH2 0x2ACB PUSH2 0x268C JUMP JUMPDEST SWAP1 POP PUSH2 0x2AD7 DUP3 DUP3 PUSH2 0x2A90 JUMP JUMPDEST SWAP2 SWAP1 POP JUMP JUMPDEST PUSH1 0x0 PUSH8 0xFFFFFFFFFFFFFFFF DUP3 GT ISZERO PUSH2 0x2AF7 JUMPI PUSH2 0x2AF6 PUSH2 0x2A61 JUMP JUMPDEST JUMPDEST PUSH2 0x2B00 DUP3 PUSH2 0x27AA JUMP JUMPDEST SWAP1 POP PUSH1 0x20 DUP2 ADD SWAP1 POP SWAP2 SWAP1 POP JUMP JUMPDEST DUP3 DUP2 DUP4 CALLDATACOPY PUSH1 0x0 DUP4 DUP4 ADD MSTORE POP POP POP JUMP JUMPDEST PUSH1 0x0 PUSH2 0x2B2F PUSH2 0x2B2A DUP5 PUSH2 0x2ADC JUMP JUMPDEST PUSH2 0x2AC1 JUMP JUMPDEST SWAP1 POP DUP3 DUP2 MSTORE PUSH1 0x20 DUP2 ADD DUP5 DUP5 DUP5 ADD GT ISZERO PUSH2 0x2B4B JUMPI PUSH2 0x2B4A PUSH2 0x2A5C JUMP JUMPDEST JUMPDEST PUSH2 0x2B56 DUP5 DUP3 DUP6 PUSH2 0x2B0D JUMP JUMPDEST POP SWAP4 SWAP3 POP POP POP JUMP JUMPDEST PUSH1 0x0 DUP3 PUSH1 0x1F DUP4 ADD SLT PUSH2 0x2B73 JUMPI PUSH2 0x2B72 PUSH2 0x2A57 JUMP JUMPDEST JUMPDEST DUP2 CALLDATALOAD PUSH2 0x2B83 DUP5 DUP3 PUSH1 0x20 DUP7 ADD PUSH2 0x2B1C JUMP JUMPDEST SWAP2 POP POP SWAP3 SWAP2 POP POP JUMP JUMPDEST PUSH1 0x0 DUP1 PUSH1 0x0 DUP1 PUSH1 0x80 DUP6 DUP8 SUB SLT ISZERO PUSH2 0x2BA6 JUMPI PUSH2 0x2BA5 PUSH2 0x2696 JUMP JUMPDEST JUMPDEST PUSH1 0x0 PUSH2 0x2BB4 DUP8 DUP3 DUP9 ADD PUSH2 0x28EC JUMP JUMPDEST SWAP5 POP POP PUSH1 0x20 PUSH2 0x2BC5 DUP8 DUP3 DUP9 ADD PUSH2 0x28EC JUMP JUMPDEST SWAP4 POP POP PUSH1 0x40 PUSH2 0x2BD6 DUP8 DUP3 DUP9 ADD PUSH2 0x2837 JUMP JUMPDEST SWAP3 POP POP PUSH1 0x60 DUP6 ADD CALLDATALOAD PUSH8 0xFFFFFFFFFFFFFFFF DUP2 GT ISZERO PUSH2 0x2BF7 JUMPI PUSH2 0x2BF6 PUSH2 0x269B JUMP JUMPDEST JUMPDEST PUSH2 0x2C03 DUP8 DUP3 DUP9 ADD PUSH2 0x2B5E JUMP JUMPDEST SWAP2 POP POP SWAP3 SWAP6 SWAP2 SWAP5 POP SWAP3 POP JUMP JUMPDEST PUSH1 0x0 PUSH8 0xFFFFFFFFFFFFFFFF DUP3 GT ISZERO PUSH2 0x2C2A JUMPI PUSH2 0x2C29 PUSH2 0x2A61 JUMP JUMPDEST JUMPDEST PUSH2 0x2C33 DUP3 PUSH2 0x27AA JUMP JUMPDEST SWAP1 POP PUSH1 0x20 DUP2 ADD SWAP1 POP SWAP2 SWAP1 POP JUMP JUMPDEST PUSH1 0x0 PUSH2 0x2C53 PUSH2 0x2C4E DUP5 PUSH2 0x2C0F JUMP JUMPDEST PUSH2 0x2AC1 JUMP JUMPDEST SWAP1 POP DUP3 DUP2 MSTORE PUSH1 0x20 DUP2 ADD DUP5 DUP5 DUP5 ADD GT ISZERO PUSH2 0x2C6F JUMPI PUSH2 0x2C6E PUSH2 0x2A5C JUMP JUMPDEST JUMPDEST PUSH2 0x2C7A DUP5 DUP3 DUP6 PUSH2 0x2B0D JUMP JUMPDEST POP SWAP4 SWAP3 POP POP POP JUMP JUMPDEST PUSH1 0x0 DUP3 PUSH1 0x1F DUP4 ADD SLT PUSH2 0x2C97 JUMPI PUSH2 0x2C96 PUSH2 0x2A57 JUMP JUMPDEST JUMPDEST DUP2 CALLDATALOAD PUSH2 0x2CA7 DUP5 DUP3 PUSH1 0x20 DUP7 ADD PUSH2 0x2C40 JUMP JUMPDEST SWAP2 POP POP SWAP3 SWAP2 POP POP JUMP JUMPDEST PUSH1 0x0 DUP1 PUSH1 0x40 DUP4 DUP6 SUB SLT ISZERO PUSH2 0x2CC7 JUMPI PUSH2 0x2CC6 PUSH2 0x2696 JUMP JUMPDEST JUMPDEST PUSH1 0x0 PUSH2 0x2CD5 DUP6 DUP3 DUP7 ADD PUSH2 0x28EC JUMP JUMPDEST SWAP3 POP POP PUSH1 0x20 DUP4 ADD CALLDATALOAD PUSH8 0xFFFFFFFFFFFFFFFF DUP2 GT ISZERO PUSH2 0x2CF6 JUMPI PUSH2 0x2CF5 PUSH2 0x269B JUMP JUMPDEST JUMPDEST PUSH2 0x2D02 DUP6 DUP3 DUP7 ADD PUSH2 0x2C82 JUMP JUMPDEST SWAP2 POP POP SWAP3 POP SWAP3 SWAP1 POP JUMP JUMPDEST PUSH1 0x0 DUP1 PUSH1 0x40 DUP4 DUP6 SUB SLT ISZERO PUSH2 0x2D23 JUMPI PUSH2 0x2D22 PUSH2 0x2696 JUMP JUMPDEST JUMPDEST PUSH1 0x0 PUSH2 0x2D31 DUP6 DUP3 DUP7 ADD PUSH2 0x28EC JUMP JUMPDEST SWAP3 POP POP PUSH1 0x20 PUSH2 0x2D42 DUP6 DUP3 DUP7 ADD PUSH2 0x28EC JUMP JUMPDEST SWAP2 POP POP SWAP3 POP SWAP3 SWAP1 POP JUMP JUMPDEST PUSH32 0x4E487B7100000000000000000000000000000000000000000000000000000000 PUSH1 0x0 MSTORE PUSH1 0x22 PUSH1 0x4 MSTORE PUSH1 0x24 PUSH1 0x0 REVERT JUMPDEST PUSH1 0x0 PUSH1 0x2 DUP3 DIV SWAP1 POP PUSH1 0x1 DUP3 AND DUP1 PUSH2 0x2D93 JUMPI PUSH1 0x7F DUP3 AND SWAP2 POP JUMPDEST PUSH1 0x20 DUP3 LT DUP2 EQ ISZERO PUSH2 0x2DA7 JUMPI PUSH2 0x2DA6 PUSH2 0x2D4C JUMP JUMPDEST JUMPDEST POP SWAP2 SWAP1 POP JUMP JUMPDEST PUSH32 0x4552433732313A20617070726F76616C20746F2063757272656E74206F776E65 PUSH1 0x0 DUP3 ADD MSTORE PUSH32 0x7200000000000000000000000000000000000000000000000000000000000000 PUSH1 0x20 DUP3 ADD MSTORE POP JUMP JUMPDEST PUSH1 0x0 PUSH2 0x2E09 PUSH1 0x21 DUP4 PUSH2 0x2766 JUMP JUMPDEST SWAP2 POP PUSH2 0x2E14 DUP3 PUSH2 0x2DAD JUMP JUMPDEST PUSH1 0x40 DUP3 ADD SWAP1 POP SWAP2 SWAP1 POP JUMP JUMPDEST PUSH1 0x0 PUSH1 0x20 DUP3 ADD SWAP1 POP DUP2 DUP2 SUB PUSH1 0x0 DUP4 ADD MSTORE PUSH2 0x2E38 DUP2 PUSH2 0x2DFC JUMP JUMPDEST SWAP1 POP SWAP2 SWAP1 POP JUMP JUMPDEST PUSH32 0x4552433732313A20617070726F76652063616C6C6572206973206E6F7420746F PUSH1 0x0 DUP3 ADD MSTORE PUSH32 0x6B656E206F776E6572206F7220617070726F76656420666F7220616C6C000000 PUSH1 0x20 DUP3 ADD MSTORE POP JUMP JUMPDEST PUSH1 0x0 PUSH2 0x2E9B PUSH1 0x3D DUP4 PUSH2 0x2766 JUMP JUMPDEST SWAP2 POP PUSH2 0x2EA6 DUP3 PUSH2 0x2E3F JUMP JUMPDEST PUSH1 0x40 DUP3 ADD SWAP1 POP SWAP2 SWAP1 POP JUMP JUMPDEST PUSH1 0x0 PUSH1 0x20 DUP3 ADD SWAP1 POP DUP2 DUP2 SUB PUSH1 0x0 DUP4 ADD MSTORE PUSH2 0x2ECA DUP2 PUSH2 0x2E8E JUMP JUMPDEST SWAP1 POP SWAP2 SWAP1 POP JUMP JUMPDEST PUSH32 0x4552433732313A2063616C6C6572206973206E6F7420746F6B656E206F776E65 PUSH1 0x0 DUP3 ADD MSTORE PUSH32 0x72206F7220617070726F76656400000000000000000000000000000000000000 PUSH1 0x20 DUP3 ADD MSTORE POP JUMP JUMPDEST PUSH1 0x0 PUSH2 0x2F2D PUSH1 0x2D DUP4 PUSH2 0x2766 JUMP JUMPDEST SWAP2 POP PUSH2 0x2F38 DUP3 PUSH2 0x2ED1 JUMP JUMPDEST PUSH1 0x40 DUP3 ADD SWAP1 POP SWAP2 SWAP1 POP JUMP JUMPDEST PUSH1 0x0 PUSH1 0x20 DUP3 ADD SWAP1 POP DUP2 DUP2 SUB PUSH1 0x0 DUP4 ADD MSTORE PUSH2 0x2F5C DUP2 PUSH2 0x2F20 JUMP JUMPDEST SWAP1 POP SWAP2 SWAP1 POP JUMP JUMPDEST PUSH32 0x455243373231456E756D657261626C653A206F776E657220696E646578206F75 PUSH1 0x0 DUP3 ADD MSTORE PUSH32 0x74206F6620626F756E6473000000000000000000000000000000000000000000 PUSH1 0x20 DUP3 ADD MSTORE POP JUMP JUMPDEST PUSH1 0x0 PUSH2 0x2FBF PUSH1 0x2B DUP4 PUSH2 0x2766 JUMP JUMPDEST SWAP2 POP PUSH2 0x2FCA DUP3 PUSH2 0x2F63 JUMP JUMPDEST PUSH1 0x40 DUP3 ADD SWAP1 POP SWAP2 SWAP1 POP JUMP JUMPDEST PUSH1 0x0 PUSH1 0x20 DUP3 ADD SWAP1 POP DUP2 DUP2 SUB PUSH1 0x0 DUP4 ADD MSTORE PUSH2 0x2FEE DUP2 PUSH2 0x2FB2 JUMP JUMPDEST SWAP1 POP SWAP2 SWAP1 POP JUMP JUMPDEST PUSH32 0x455243373231456E756D657261626C653A20676C6F62616C20696E646578206F PUSH1 0x0 DUP3 ADD MSTORE PUSH32 0x7574206F6620626F756E64730000000000000000000000000000000000000000 PUSH1 0x20 DUP3 ADD MSTORE POP JUMP JUMPDEST PUSH1 0x0 PUSH2 0x3051 PUSH1 0x2C DUP4 PUSH2 0x2766 JUMP JUMPDEST SWAP2 POP PUSH2 0x305C DUP3 PUSH2 0x2FF5 JUMP JUMPDEST PUSH1 0x40 DUP3 ADD SWAP1 POP SWAP2 SWAP1 POP JUMP JUMPDEST PUSH1 0x0 PUSH1 0x20 DUP3 ADD SWAP1 POP DUP2 DUP2 SUB PUSH1 0x0 DUP4 ADD MSTORE PUSH2 0x3080 DUP2 PUSH2 0x3044 JUMP JUMPDEST SWAP1 POP SWAP2 SWAP1 POP JUMP JUMPDEST PUSH32 0x4E487B7100000000000000000000000000000000000000000000000000000000 PUSH1 0x0 MSTORE PUSH1 0x32 PUSH1 0x4 MSTORE PUSH1 0x24 PUSH1 0x0 REVERT JUMPDEST PUSH32 0x4552433732313A20696E76616C696420746F6B656E2049440000000000000000 PUSH1 0x0 DUP3 ADD MSTORE POP JUMP JUMPDEST PUSH1 0x0 PUSH2 0x30EC PUSH1 0x18 DUP4 PUSH2 0x2766 JUMP JUMPDEST SWAP2 POP PUSH2 0x30F7 DUP3 PUSH2 0x30B6 JUMP JUMPDEST PUSH1 0x20 DUP3 ADD SWAP1 POP SWAP2 SWAP1 POP JUMP JUMPDEST PUSH1 0x0 PUSH1 0x20 DUP3 ADD SWAP1 POP DUP2 DUP2 SUB PUSH1 0x0 DUP4 ADD MSTORE PUSH2 0x311B DUP2 PUSH2 0x30DF JUMP JUMPDEST SWAP1 POP SWAP2 SWAP1 POP JUMP JUMPDEST PUSH32 0x4552433732313A2061646472657373207A65726F206973206E6F742061207661 PUSH1 0x0 DUP3 ADD MSTORE PUSH32 0x6C6964206F776E65720000000000000000000000000000000000000000000000 PUSH1 0x20 DUP3 ADD MSTORE POP JUMP JUMPDEST PUSH1 0x0 PUSH2 0x317E PUSH1 0x29 DUP4 PUSH2 0x2766 JUMP JUMPDEST SWAP2 POP PUSH2 0x3189 DUP3 PUSH2 0x3122 JUMP JUMPDEST PUSH1 0x40 DUP3 ADD SWAP1 POP SWAP2 SWAP1 POP JUMP JUMPDEST PUSH1 0x0 PUSH1 0x20 DUP3 ADD SWAP1 POP DUP2 DUP2 SUB PUSH1 0x0 DUP4 ADD MSTORE PUSH2 0x31AD DUP2 PUSH2 0x3171 JUMP JUMPDEST SWAP1 POP SWAP2 SWAP1 POP JUMP JUMPDEST PUSH32 0x49276D20736F72727920616C6C204E4654732068617665206265656E206D696E PUSH1 0x0 DUP3 ADD MSTORE PUSH32 0x7465640000000000000000000000000000000000000000000000000000000000 PUSH1 0x20 DUP3 ADD MSTORE POP JUMP JUMPDEST PUSH1 0x0 PUSH2 0x3210 PUSH1 0x23 DUP4 PUSH2 0x2766 JUMP JUMPDEST SWAP2 POP PUSH2 0x321B DUP3 PUSH2 0x31B4 JUMP JUMPDEST PUSH1 0x40 DUP3 ADD SWAP1 POP SWAP2 SWAP1 POP JUMP JUMPDEST PUSH1 0x0 PUSH1 0x20 DUP3 ADD SWAP1 POP DUP2 DUP2 SUB PUSH1 0x0 DUP4 ADD MSTORE PUSH2 0x323F DUP2 PUSH2 0x3203 JUMP JUMPDEST SWAP1 POP SWAP2 SWAP1 POP JUMP JUMPDEST PUSH32 0x4F776E61626C653A206E6577206F776E657220697320746865207A65726F2061 PUSH1 0x0 DUP3 ADD MSTORE PUSH32 0x6464726573730000000000000000000000000000000000000000000000000000 PUSH1 0x20 DUP3 ADD MSTORE POP JUMP JUMPDEST PUSH1 0x0 PUSH2 0x32A2 PUSH1 0x26 DUP4 PUSH2 0x2766 JUMP JUMPDEST SWAP2 POP PUSH2 0x32AD DUP3 PUSH2 0x3246 JUMP JUMPDEST PUSH1 0x40 DUP3 ADD SWAP1 POP SWAP2 SWAP1 POP JUMP JUMPDEST PUSH1 0x0 PUSH1 0x20 DUP3 ADD SWAP1 POP DUP2 DUP2 SUB PUSH1 0x0 DUP4 ADD MSTORE PUSH2 0x32D1 DUP2 PUSH2 0x3295 JUMP JUMPDEST SWAP1 POP SWAP2 SWAP1 POP JUMP JUMPDEST PUSH32 0x4552433732313A207472616E736665722066726F6D20696E636F727265637420 PUSH1 0x0 DUP3 ADD MSTORE PUSH32 0x6F776E6572000000000000000000000000000000000000000000000000000000 PUSH1 0x20 DUP3 ADD MSTORE POP JUMP JUMPDEST PUSH1 0x0 PUSH2 0x3334 PUSH1 0x25 DUP4 PUSH2 0x2766 JUMP JUMPDEST SWAP2 POP PUSH2 0x333F DUP3 PUSH2 0x32D8 JUMP JUMPDEST PUSH1 0x40 DUP3 ADD SWAP1 POP SWAP2 SWAP1 POP JUMP JUMPDEST PUSH1 0x0 PUSH1 0x20 DUP3 ADD SWAP1 POP DUP2 DUP2 SUB PUSH1 0x0 DUP4 ADD MSTORE PUSH2 0x3363 DUP2 PUSH2 0x3327 JUMP JUMPDEST SWAP1 POP SWAP2 SWAP1 POP JUMP JUMPDEST PUSH32 0x4552433732313A207472616E7366657220746F20746865207A65726F20616464 PUSH1 0x0 DUP3 ADD MSTORE PUSH32 0x7265737300000000000000000000000000000000000000000000000000000000 PUSH1 0x20 DUP3 ADD MSTORE POP JUMP JUMPDEST PUSH1 0x0 PUSH2 0x33C6 PUSH1 0x24 DUP4 PUSH2 0x2766 JUMP JUMPDEST SWAP2 POP PUSH2 0x33D1 DUP3 PUSH2 0x336A JUMP JUMPDEST PUSH1 0x40 DUP3 ADD SWAP1 POP SWAP2 SWAP1 POP JUMP JUMPDEST PUSH1 0x0 PUSH1 0x20 DUP3 ADD SWAP1 POP DUP2 DUP2 SUB PUSH1 0x0 DUP4 ADD MSTORE PUSH2 0x33F5 DUP2 PUSH2 0x33B9 JUMP JUMPDEST SWAP1 POP SWAP2 SWAP1 POP JUMP JUMPDEST PUSH32 0x4F776E61626C653A2063616C6C6572206973206E6F7420746865206F776E6572 PUSH1 0x0 DUP3 ADD MSTORE POP JUMP JUMPDEST PUSH1 0x0 PUSH2 0x3432 PUSH1 0x20 DUP4 PUSH2 0x2766 JUMP JUMPDEST SWAP2 POP PUSH2 0x343D DUP3 PUSH2 0x33FC JUMP JUMPDEST PUSH1 0x20 DUP3 ADD SWAP1 POP SWAP2 SWAP1 POP JUMP JUMPDEST PUSH1 0x0 PUSH1 0x20 DUP3 ADD SWAP1 POP DUP2 DUP2 SUB PUSH1 0x0 DUP4 ADD MSTORE PUSH2 0x3461 DUP2 PUSH2 0x3425 JUMP JUMPDEST SWAP1 POP SWAP2 SWAP1 POP JUMP JUMPDEST PUSH32 0x4552433732313A20617070726F766520746F2063616C6C657200000000000000 PUSH1 0x0 DUP3 ADD MSTORE POP JUMP JUMPDEST PUSH1 0x0 PUSH2 0x349E PUSH1 0x19 DUP4 PUSH2 0x2766 JUMP JUMPDEST SWAP2 POP PUSH2 0x34A9 DUP3 PUSH2 0x3468 JUMP JUMPDEST PUSH1 0x20 DUP3 ADD SWAP1 POP SWAP2 SWAP1 POP JUMP JUMPDEST PUSH1 0x0 PUSH1 0x20 DUP3 ADD SWAP1 POP DUP2 DUP2 SUB PUSH1 0x0 DUP4 ADD MSTORE PUSH2 0x34CD DUP2 PUSH2 0x3491 JUMP JUMPDEST SWAP1 POP SWAP2 SWAP1 POP JUMP JUMPDEST PUSH32 0x4552433732313A207472616E7366657220746F206E6F6E204552433732315265 PUSH1 0x0 DUP3 ADD MSTORE PUSH32 0x63656976657220696D706C656D656E7465720000000000000000000000000000 PUSH1 0x20 DUP3 ADD MSTORE POP JUMP JUMPDEST PUSH1 0x0 PUSH2 0x3530 PUSH1 0x32 DUP4 PUSH2 0x2766 JUMP JUMPDEST SWAP2 POP PUSH2 0x353B DUP3 PUSH2 0x34D4 JUMP JUMPDEST PUSH1 0x40 DUP3 ADD SWAP1 POP SWAP2 SWAP1 POP JUMP JUMPDEST PUSH1 0x0 PUSH1 0x20 DUP3 ADD SWAP1 POP DUP2 DUP2 SUB PUSH1 0x0 DUP4 ADD MSTORE PUSH2 0x355F DUP2 PUSH2 0x3523 JUMP JUMPDEST SWAP1 POP SWAP2 SWAP1 POP JUMP JUMPDEST PUSH1 0x0 DUP2 SWAP1 POP SWAP3 SWAP2 POP POP JUMP JUMPDEST PUSH1 0x0 PUSH2 0x357C DUP3 PUSH2 0x275B JUMP JUMPDEST PUSH2 0x3586 DUP2 DUP6 PUSH2 0x3566 JUMP JUMPDEST SWAP4 POP PUSH2 0x3596 DUP2 DUP6 PUSH1 0x20 DUP7 ADD PUSH2 0x2777 JUMP JUMPDEST DUP1 DUP5 ADD SWAP2 POP POP SWAP3 SWAP2 POP POP JUMP JUMPDEST PUSH1 0x0 PUSH2 0x35AE DUP3 DUP6 PUSH2 0x3571 JUMP JUMPDEST SWAP2 POP PUSH2 0x35BA DUP3 DUP5 PUSH2 0x3571 JUMP JUMPDEST SWAP2 POP DUP2 SWAP1 POP SWAP4 SWAP3 POP POP POP JUMP JUMPDEST PUSH32 0x45524337323155524953746F726167653A2055524920736574206F66206E6F6E PUSH1 0x0 DUP3 ADD MSTORE PUSH32 0x6578697374656E7420746F6B656E000000000000000000000000000000000000 PUSH1 0x20 DUP3 ADD MSTORE POP JUMP JUMPDEST PUSH1 0x0 PUSH2 0x3622 PUSH1 0x2E DUP4 PUSH2 0x2766 JUMP JUMPDEST SWAP2 POP PUSH2 0x362D DUP3 PUSH2 0x35C6 JUMP JUMPDEST PUSH1 0x40 DUP3 ADD SWAP1 POP SWAP2 SWAP1 POP JUMP JUMPDEST PUSH1 0x0 PUSH1 0x20 DUP3 ADD SWAP1 POP DUP2 DUP2 SUB PUSH1 0x0 DUP4 ADD MSTORE PUSH2 0x3651 DUP2 PUSH2 0x3615 JUMP JUMPDEST SWAP1 POP SWAP2 SWAP1 POP JUMP JUMPDEST PUSH1 0x0 DUP2 MLOAD SWAP1 POP SWAP2 SWAP1 POP JUMP JUMPDEST PUSH1 0x0 DUP3 DUP3 MSTORE PUSH1 0x20 DUP3 ADD SWAP1 POP SWAP3 SWAP2 POP POP JUMP JUMPDEST PUSH1 0x0 PUSH2 0x367F DUP3 PUSH2 0x3658 JUMP JUMPDEST PUSH2 0x3689 DUP2 DUP6 PUSH2 0x3663 JUMP JUMPDEST SWAP4 POP PUSH2 0x3699 DUP2 DUP6 PUSH1 0x20 DUP7 ADD PUSH2 0x2777 JUMP JUMPDEST PUSH2 0x36A2 DUP2 PUSH2 0x27AA JUMP JUMPDEST DUP5 ADD SWAP2 POP POP SWAP3 SWAP2 POP POP JUMP JUMPDEST PUSH1 0x0 PUSH1 0x80 DUP3 ADD SWAP1 POP PUSH2 0x36C2 PUSH1 0x0 DUP4 ADD DUP8 PUSH2 0x28AB JUMP JUMPDEST PUSH2 0x36CF PUSH1 0x20 DUP4 ADD DUP7 PUSH2 0x28AB JUMP JUMPDEST PUSH2 0x36DC PUSH1 0x40 DUP4 ADD DUP6 PUSH2 0x2941 JUMP JUMPDEST DUP2 DUP2 SUB PUSH1 0x60 DUP4 ADD MSTORE PUSH2 0x36EE DUP2 DUP5 PUSH2 0x3674 JUMP JUMPDEST SWAP1 POP SWAP6 SWAP5 POP POP POP POP POP JUMP JUMPDEST PUSH1 0x0 DUP2 MLOAD SWAP1 POP PUSH2 0x3708 DUP2 PUSH2 0x26CC JUMP JUMPDEST SWAP3 SWAP2 POP POP JUMP JUMPDEST PUSH1 0x0 PUSH1 0x20 DUP3 DUP5 SUB SLT ISZERO PUSH2 0x3724 JUMPI PUSH2 0x3723 PUSH2 0x2696 JUMP JUMPDEST JUMPDEST PUSH1 0x0 PUSH2 0x3732 DUP5 DUP3 DUP6 ADD PUSH2 0x36F9 JUMP JUMPDEST SWAP2 POP POP SWAP3 SWAP2 POP POP JUMP JUMPDEST PUSH32 0x455243373231456E756D657261626C653A20636F6E7365637574697665207472 PUSH1 0x0 DUP3 ADD MSTORE PUSH32 0x616E7366657273206E6F7420737570706F727465640000000000000000000000 PUSH1 0x20 DUP3 ADD MSTORE POP JUMP JUMPDEST PUSH1 0x0 PUSH2 0x3797 PUSH1 0x35 DUP4 PUSH2 0x2766 JUMP JUMPDEST SWAP2 POP PUSH2 0x37A2 DUP3 PUSH2 0x373B JUMP JUMPDEST PUSH1 0x40 DUP3 ADD SWAP1 POP SWAP2 SWAP1 POP JUMP JUMPDEST PUSH1 0x0 PUSH1 0x20 DUP3 ADD SWAP1 POP DUP2 DUP2 SUB PUSH1 0x0 DUP4 ADD MSTORE PUSH2 0x37C6 DUP2 PUSH2 0x378A JUMP JUMPDEST SWAP1 POP SWAP2 SWAP1 POP JUMP JUMPDEST PUSH32 0x4E487B7100000000000000000000000000000000000000000000000000000000 PUSH1 0x0 MSTORE PUSH1 0x12 PUSH1 0x4 MSTORE PUSH1 0x24 PUSH1 0x0 REVERT JUMPDEST PUSH32 0x4552433732313A206D696E7420746F20746865207A65726F2061646472657373 PUSH1 0x0 DUP3 ADD MSTORE POP JUMP JUMPDEST PUSH1 0x0 PUSH2 0x3832 PUSH1 0x20 DUP4 PUSH2 0x2766 JUMP JUMPDEST SWAP2 POP PUSH2 0x383D DUP3 PUSH2 0x37FC JUMP JUMPDEST PUSH1 0x20 DUP3 ADD SWAP1 POP SWAP2 SWAP1 POP JUMP JUMPDEST PUSH1 0x0 PUSH1 0x20 DUP3 ADD SWAP1 POP DUP2 DUP2 SUB PUSH1 0x0 DUP4 ADD MSTORE PUSH2 0x3861 DUP2 PUSH2 0x3825 JUMP JUMPDEST SWAP1 POP SWAP2 SWAP1 POP JUMP JUMPDEST PUSH32 0x4552433732313A20746F6B656E20616C7265616479206D696E74656400000000 PUSH1 0x0 DUP3 ADD MSTORE POP JUMP JUMPDEST PUSH1 0x0 PUSH2 0x389E PUSH1 0x1C DUP4 PUSH2 0x2766 JUMP JUMPDEST SWAP2 POP PUSH2 0x38A9 DUP3 PUSH2 0x3868 JUMP JUMPDEST PUSH1 0x20 DUP3 ADD SWAP1 POP SWAP2 SWAP1 POP JUMP JUMPDEST PUSH1 0x0 PUSH1 0x20 DUP3 ADD SWAP1 POP DUP2 DUP2 SUB PUSH1 0x0 DUP4 ADD MSTORE PUSH2 0x38CD DUP2 PUSH2 0x3891 JUMP JUMPDEST SWAP1 POP SWAP2 SWAP1 POP JUMP JUMPDEST PUSH32 0x4E487B7100000000000000000000000000000000000000000000000000000000 PUSH1 0x0 MSTORE PUSH1 0x11 PUSH1 0x4 MSTORE PUSH1 0x24 PUSH1 0x0 REVERT JUMPDEST PUSH1 0x0 PUSH2 0x390E DUP3 PUSH2 0x2816 JUMP JUMPDEST SWAP2 POP PUSH2 0x3919 DUP4 PUSH2 0x2816 JUMP JUMPDEST SWAP3 POP DUP3 DUP3 LT ISZERO PUSH2 0x392C JUMPI PUSH2 0x392B PUSH2 0x38D4 JUMP JUMPDEST JUMPDEST DUP3 DUP3 SUB SWAP1 POP SWAP3 SWAP2 POP POP JUMP JUMPDEST PUSH32 0x4E487B7100000000000000000000000000000000000000000000000000000000 PUSH1 0x0 MSTORE PUSH1 0x31 PUSH1 0x4 MSTORE PUSH1 0x24 PUSH1 0x0 REVERT INVALID LOG2 PUSH5 0x6970667358 0x22 SLT KECCAK256 0x4A SWAP2 MULMOD 0x2B 0x2A BYTE DUP1 0x26 DIV JUMP 0xE9 0xE2 SIGNEXTEND 0xC0 SMOD 0xB5 0xAC SWAP12 DUP7 0xD2 PUSH21 0x247DED1B46596A882AE0C964736F6C634300080900 CALLER "
		},
		"gasEstimates": {
			"creation": {
				"codeDepositCost": "2949600",
				"executionCost": "infinite",
				"totalCost": "infinite"
			},
			"external": {
				"approve(address,uint256)": "infinite",
				"balanceOf(address)": "2924",
				"burn(uint256)": "infinite",
				"getApproved(uint256)": "5300",
				"isApprovedForAll(address,address)": "infinite",
				"name()": "infinite",
				"owner()": "2611",
				"ownerOf(uint256)": "3025",
				"renounceOwnership()": "30465",
				"safeMint(address,string)": "infinite",
				"safeTransferFrom(address,address,uint256)": "infinite",
				"safeTransferFrom(address,address,uint256,bytes)": "infinite",
				"setApprovalForAll(address,bool)": "infinite",
				"supportsInterface(bytes4)": "1024",
				"symbol()": "infinite",
				"tokenByIndex(uint256)": "infinite",
				"tokenOfOwnerByIndex(address,uint256)": "infinite",
				"tokenURI(uint256)": "infinite",
				"totalSupply()": "2557",
				"transferFrom(address,address,uint256)": "infinite",
				"transferOwnership(address)": "30879"
			},
			"internal": {
				"_beforeTokenTransfer(address,address,uint256,uint256)": "infinite",
				"_burn(uint256)": "infinite"
			}
		},
		"methodIdentifiers": {
			"approve(address,uint256)": "095ea7b3",
			"balanceOf(address)": "70a08231",
			"burn(uint256)": "42966c68",
			"getApproved(uint256)": "081812fc",
			"isApprovedForAll(address,address)": "e985e9c5",
			"name()": "06fdde03",
			"owner()": "8da5cb5b",
			"ownerOf(uint256)": "6352211e",
			"renounceOwnership()": "715018a6",
			"safeMint(address,string)": "d204c45e",
			"safeTransferFrom(address,address,uint256)": "42842e0e",
			"safeTransferFrom(address,address,uint256,bytes)": "b88d4fde",
			"setApprovalForAll(address,bool)": "a22cb465",
			"supportsInterface(bytes4)": "01ffc9a7",
			"symbol()": "95d89b41",
			"tokenByIndex(uint256)": "4f6ccce7",
			"tokenOfOwnerByIndex(address,uint256)": "2f745c59",
			"tokenURI(uint256)": "c87b56dd",
			"totalSupply()": "18160ddd",
			"transferFrom(address,address,uint256)": "23b872dd",
			"transferOwnership(address)": "f2fde38b"
		}
	},
	"abi": [
		{
			"inputs": [],
			"stateMutability": "nonpayable",
			"type": "constructor"
		},
		{
			"anonymous": false,
			"inputs": [
				{
					"indexed": true,
					"internalType": "address",
					"name": "owner",
					"type": "address"
				},
				{
					"indexed": true,
					"internalType": "address",
					"name": "approved",
					"type": "address"
				},
				{
					"indexed": true,
					"internalType": "uint256",
					"name": "tokenId",
					"type": "uint256"
				}
			],
			"name": "Approval",
			"type": "event"
		},
		{
			"anonymous": false,
			"inputs": [
				{
					"indexed": true,
					"internalType": "address",
					"name": "owner",
					"type": "address"
				},
				{
					"indexed": true,
					"internalType": "address",
					"name": "operator",
					"type": "address"
				},
				{
					"indexed": false,
					"internalType": "bool",
					"name": "approved",
					"type": "bool"
				}
			],
			"name": "ApprovalForAll",
			"type": "event"
		},
		{
			"anonymous": false,
			"inputs": [
				{
					"indexed": false,
					"internalType": "uint256",
					"name": "_fromTokenId",
					"type": "uint256"
				},
				{
					"indexed": false,
					"internalType": "uint256",
					"name": "_toTokenId",
					"type": "uint256"
				}
			],
			"name": "BatchMetadataUpdate",
			"type": "event"
		},
		{
			"anonymous": false,
			"inputs": [
				{
					"indexed": false,
					"internalType": "uint256",
					"name": "_tokenId",
					"type": "uint256"
				}
			],
			"name": "MetadataUpdate",
			"type": "event"
		},
		{
			"anonymous": false,
			"inputs": [
				{
					"indexed": true,
					"internalType": "address",
					"name": "previousOwner",
					"type": "address"
				},
				{
					"indexed": true,
					"internalType": "address",
					"name": "newOwner",
					"type": "address"
				}
			],
			"name": "OwnershipTransferred",
			"type": "event"
		},
		{
			"anonymous": false,
			"inputs": [
				{
					"indexed": true,
					"internalType": "address",
					"name": "from",
					"type": "address"
				},
				{
					"indexed": true,
					"internalType": "address",
					"name": "to",
					"type": "address"
				},
				{
					"indexed": true,
					"internalType": "uint256",
					"name": "tokenId",
					"type": "uint256"
				}
			],
			"name": "Transfer",
			"type": "event"
		},
		{
			"inputs": [
				{
					"internalType": "address",
					"name": "to",
					"type": "address"
				},
				{
					"internalType": "uint256",
					"name": "tokenId",
					"type": "uint256"
				}
			],
			"name": "approve",
			"outputs": [],
			"stateMutability": "nonpayable",
			"type": "function"
		},
		{
			"inputs": [
				{
					"internalType": "address",
					"name": "owner",
					"type": "address"
				}
			],
			"name": "balanceOf",
			"outputs": [
				{
					"internalType": "uint256",
					"name": "",
					"type": "uint256"
				}
			],
			"stateMutability": "view",
			"type": "function"
		},
		{
			"inputs": [
				{
					"internalType": "uint256",
					"name": "tokenId",
					"type": "uint256"
				}
			],
			"name": "burn",
			"outputs": [],
			"stateMutability": "nonpayable",
			"type": "function"
		},
		{
			"inputs": [
				{
					"internalType": "uint256",
					"name": "tokenId",
					"type": "uint256"
				}
			],
			"name": "getApproved",
			"outputs": [
				{
					"internalType": "address",
					"name": "",
					"type": "address"
				}
			],
			"stateMutability": "view",
			"type": "function"
		},
		{
			"inputs": [
				{
					"internalType": "address",
					"name": "owner",
					"type": "address"
				},
				{
					"internalType": "address",
					"name": "operator",
					"type": "address"
				}
			],
			"name": "isApprovedForAll",
			"outputs": [
				{
					"internalType": "bool",
					"name": "",
					"type": "bool"
				}
			],
			"stateMutability": "view",
			"type": "function"
		},
		{
			"inputs": [],
			"name": "name",
			"outputs": [
				{
					"internalType": "string",
					"name": "",
					"type": "string"
				}
			],
			"stateMutability": "view",
			"type": "function"
		},
		{
			"inputs": [],
			"name": "owner",
			"outputs": [
				{
					"internalType": "address",
					"name": "",
					"type": "address"
				}
			],
			"stateMutability": "view",
			"type": "function"
		},
		{
			"inputs": [
				{
					"internalType": "uint256",
					"name": "tokenId",
					"type": "uint256"
				}
			],
			"name": "ownerOf",
			"outputs": [
				{
					"internalType": "address",
					"name": "",
					"type": "address"
				}
			],
			"stateMutability": "view",
			"type": "function"
		},
		{
			"inputs": [],
			"name": "renounceOwnership",
			"outputs": [],
			"stateMutability": "nonpayable",
			"type": "function"
		},
		{
			"inputs": [
				{
					"internalType": "address",
					"name": "to",
					"type": "address"
				},
				{
					"internalType": "string",
					"name": "uri",
					"type": "string"
				}
			],
			"name": "safeMint",
			"outputs": [],
			"stateMutability": "nonpayable",
			"type": "function"
		},
		{
			"inputs": [
				{
					"internalType": "address",
					"name": "from",
					"type": "address"
				},
				{
					"internalType": "address",
					"name": "to",
					"type": "address"
				},
				{
					"internalType": "uint256",
					"name": "tokenId",
					"type": "uint256"
				}
			],
			"name": "safeTransferFrom",
			"outputs": [],
			"stateMutability": "nonpayable",
			"type": "function"
		},
		{
			"inputs": [
				{
					"internalType": "address",
					"name": "from",
					"type": "address"
				},
				{
					"internalType": "address",
					"name": "to",
					"type": "address"
				},
				{
					"internalType": "uint256",
					"name": "tokenId",
					"type": "uint256"
				},
				{
					"internalType": "bytes",
					"name": "data",
					"type": "bytes"
				}
			],
			"name": "safeTransferFrom",
			"outputs": [],
			"stateMutability": "nonpayable",
			"type": "function"
		},
		{
			"inputs": [
				{
					"internalType": "address",
					"name": "operator",
					"type": "address"
				},
				{
					"internalType": "bool",
					"name": "approved",
					"type": "bool"
				}
			],
			"name": "setApprovalForAll",
			"outputs": [],
			"stateMutability": "nonpayable",
			"type": "function"
		},
		{
			"inputs": [
				{
					"internalType": "bytes4",
					"name": "interfaceId",
					"type": "bytes4"
				}
			],
			"name": "supportsInterface",
			"outputs": [
				{
					"internalType": "bool",
					"name": "",
					"type": "bool"
				}
			],
			"stateMutability": "view",
			"type": "function"
		},
		{
			"inputs": [],
			"name": "symbol",
			"outputs": [
				{
					"internalType": "string",
					"name": "",
					"type": "string"
				}
			],
			"stateMutability": "view",
			"type": "function"
		},
		{
			"inputs": [
				{
					"internalType": "uint256",
					"name": "index",
					"type": "uint256"
				}
			],
			"name": "tokenByIndex",
			"outputs": [
				{
					"internalType": "uint256",
					"name": "",
					"type": "uint256"
				}
			],
			"stateMutability": "view",
			"type": "function"
		},
		{
			"inputs": [
				{
					"internalType": "address",
					"name": "owner",
					"type": "address"
				},
				{
					"internalType": "uint256",
					"name": "index",
					"type": "uint256"
				}
			],
			"name": "tokenOfOwnerByIndex",
			"outputs": [
				{
					"internalType": "uint256",
					"name": "",
					"type": "uint256"
				}
			],
			"stateMutability": "view",
			"type": "function"
		},
		{
			"inputs": [
				{
					"internalType": "uint256",
					"name": "tokenId",
					"type": "uint256"
				}
			],
			"name": "tokenURI",
			"outputs": [
				{
					"internalType": "string",
					"name": "",
					"type": "string"
				}
			],
			"stateMutability": "view",
			"type": "function"
		},
		{
			"inputs": [],
			"name": "totalSupply",
			"outputs": [
				{
					"internalType": "uint256",
					"name": "",
					"type": "uint256"
				}
			],
			"stateMutability": "view",
			"type": "function"
		},
		{
			"inputs": [
				{
					"internalType": "address",
					"name": "from",
					"type": "address"
				},
				{
					"internalType": "address",
					"name": "to",
					"type": "address"
				},
				{
					"internalType": "uint256",
					"name": "tokenId",
					"type": "uint256"
				}
			],
			"name": "transferFrom",
			"outputs": [],
			"stateMutability": "nonpayable",
			"type": "function"
		},
		{
			"inputs": [
				{
					"internalType": "address",
					"name": "newOwner",
					"type": "address"
				}
			],
			"name": "transferOwnership",
			"outputs": [],
			"stateMutability": "nonpayable",
			"type": "function"
		}
	]
}